{"contracts/AdSponsorPaymaster.sol":{"AdSponsorPaymaster":{"abi":[{"inputs":[{"internalType":"address","name":"_entryPoint","type":"address"}],"stateMutability":"nonpayable","type":"constructor"},{"inputs":[],"name":"EnforcedPause","type":"error"},{"inputs":[],"name":"ExpectedPause","type":"error"},{"inputs":[{"internalType":"address","name":"owner","type":"address"}],"name":"OwnableInvalidOwner","type":"error"},{"inputs":[{"internalType":"address","name":"account","type":"address"}],"name":"OwnableUnauthorizedAccount","type":"error"},{"inputs":[],"name":"ReentrancyGuardReentrantCall","type":"error"},{"anonymous":false,"inputs":[{"indexed":false,"internalType":"uint256","name":"oldVal","type":"uint256"},{"indexed":false,"internalType":"uint256","name":"newVal","type":"uint256"}],"name":"DailyGasLimitUpdated","type":"event"},{"anonymous":false,"inputs":[{"indexed":true,"internalType":"address","name":"from","type":"address"},{"indexed":false,"internalType":"uint256","name":"amount","type":"uint256"}],"name":"Deposited","type":"event"},{"anonymous":false,"inputs":[{"indexed":false,"internalType":"uint256","name":"oldVal","type":"uint256"},{"indexed":false,"internalType":"uint256","name":"newVal","type":"uint256"}],"name":"MaxCostPerUserOpUpdated","type":"event"},{"anonymous":false,"inputs":[{"indexed":true,"internalType":"address","name":"previousOwner","type":"address"},{"indexed":true,"internalType":"address","name":"newOwner","type":"address"}],"name":"OwnershipTransferred","type":"event"},{"anonymous":false,"inputs":[{"indexed":false,"internalType":"address","name":"account","type":"address"}],"name":"Paused","type":"event"},{"anonymous":false,"inputs":[{"indexed":false,"internalType":"address","name":"account","type":"address"}],"name":"Unpaused","type":"event"},{"anonymous":false,"inputs":[{"indexed":false,"internalType":"bool","name":"enabled","type":"bool"}],"name":"WhitelistEnabledUpdated","type":"event"},{"anonymous":false,"inputs":[{"indexed":true,"internalType":"address","name":"account","type":"address"},{"indexed":false,"internalType":"bool","name":"allowed","type":"bool"}],"name":"WhitelistUpdated","type":"event"},{"anonymous":false,"inputs":[{"indexed":true,"internalType":"address","name":"to","type":"address"},{"indexed":false,"internalType":"uint256","name":"amount","type":"uint256"}],"name":"Withdrawn","type":"event"},{"inputs":[{"internalType":"uint32","name":"unstakeDelaySec","type":"uint32"}],"name":"addStake","outputs":[],"stateMutability":"payable","type":"function"},{"inputs":[],"name":"dailyGasLimit","outputs":[{"internalType":"uint256","name":"","type":"uint256"}],"stateMutability":"view","type":"function"},{"inputs":[],"name":"dailyGasUsed","outputs":[{"internalType":"uint256","name":"","type":"uint256"}],"stateMutability":"view","type":"function"},{"inputs":[],"name":"deposit","outputs":[],"stateMutability":"payable","type":"function"},{"inputs":[],"name":"entryPoint","outputs":[{"internalType":"contract IEntryPoint","name":"","type":"address"}],"stateMutability":"view","type":"function"},{"inputs":[],"name":"getDeposit","outputs":[{"internalType":"uint256","name":"","type":"uint256"}],"stateMutability":"view","type":"function"},{"inputs":[],"name":"lastResetDay","outputs":[{"internalType":"uint256","name":"","type":"uint256"}],"stateMutability":"view","type":"function"},{"inputs":[],"name":"maxCostPerUserOp","outputs":[{"internalType":"uint256","name":"","type":"uint256"}],"stateMutability":"view","type":"function"},{"inputs":[],"name":"owner","outputs":[{"internalType":"address","name":"","type":"address"}],"stateMutability":"view","type":"function"},{"inputs":[],"name":"pause","outputs":[],"stateMutability":"nonpayable","type":"function"},{"inputs":[],"name":"paused","outputs":[{"internalType":"bool","name":"","type":"bool"}],"stateMutability":"view","type":"function"},{"inputs":[{"internalType":"enum AdSponsorPaymaster.PostOpMode","name":"mode","type":"uint8"},{"internalType":"bytes","name":"context","type":"bytes"},{"internalType":"uint256","name":"actualGasCost","type":"uint256"}],"name":"postOp","outputs":[],"stateMutability":"nonpayable","type":"function"},{"inputs":[],"name":"renounceOwnership","outputs":[],"stateMutability":"nonpayable","type":"function"},{"inputs":[{"internalType":"uint256","name":"_dailyGasLimit","type":"uint256"}],"name":"setDailyGasLimit","outputs":[],"stateMutability":"nonpayable","type":"function"},{"inputs":[{"internalType":"uint256","name":"_maxCostPerUserOp","type":"uint256"}],"name":"setMaxCostPerUserOp","outputs":[],"stateMutability":"nonpayable","type":"function"},{"inputs":[{"internalType":"address","name":"account","type":"address"},{"internalType":"bool","name":"allowed","type":"bool"}],"name":"setWhitelist","outputs":[],"stateMutability":"nonpayable","type":"function"},{"inputs":[{"internalType":"address[]","name":"accounts","type":"address[]"},{"internalType":"bool","name":"allowed","type":"bool"}],"name":"setWhitelistBatch","outputs":[],"stateMutability":"nonpayable","type":"function"},{"inputs":[{"internalType":"bool","name":"_enabled","type":"bool"}],"name":"setWhitelistEnabled","outputs":[],"stateMutability":"nonpayable","type":"function"},{"inputs":[{"internalType":"address","name":"newOwner","type":"address"}],"name":"transferOwnership","outputs":[],"stateMutability":"nonpayable","type":"function"},{"inputs":[],"name":"unlockStake","outputs":[],"stateMutability":"nonpayable","type":"function"},{"inputs":[],"name":"unpause","outputs":[],"stateMutability":"nonpayable","type":"function"},{"inputs":[{"components":[{"internalType":"address","name":"sender","type":"address"},{"internalType":"uint256","name":"nonce","type":"uint256"},{"internalType":"bytes","name":"initCode","type":"bytes"},{"internalType":"bytes","name":"callData","type":"bytes"},{"internalType":"uint256","name":"callGasLimit","type":"uint256"},{"internalType":"uint256","name":"verificationGasLimit","type":"uint256"},{"internalType":"uint256","name":"preVerificationGas","type":"uint256"},{"internalType":"uint256","name":"maxFeePerGas","type":"uint256"},{"internalType":"uint256","name":"maxPriorityFeePerGas","type":"uint256"},{"internalType":"bytes","name":"paymasterAndData","type":"bytes"},{"internalType":"bytes","name":"signature","type":"bytes"}],"internalType":"struct AdSponsorPaymaster.UserOperation","name":"userOp","type":"tuple"},{"internalType":"bytes32","name":"","type":"bytes32"},{"internalType":"uint256","name":"maxCost","type":"uint256"}],"name":"validatePaymasterUserOp","outputs":[{"internalType":"bytes","name":"context","type":"bytes"},{"internalType":"uint256","name":"validationData","type":"uint256"}],"stateMutability":"view","type":"function"},{"inputs":[{"internalType":"address","name":"","type":"address"}],"name":"whitelist","outputs":[{"internalType":"bool","name":"","type":"bool"}],"stateMutability":"view","type":"function"},{"inputs":[],"name":"whitelistEnabled","outputs":[{"internalType":"bool","name":"","type":"bool"}],"stateMutability":"view","type":"function"},{"inputs":[{"internalType":"address payable","name":"to","type":"address"}],"name":"withdrawStake","outputs":[],"stateMutability":"nonpayable","type":"function"},{"inputs":[{"internalType":"address payable","name":"to","type":"address"},{"internalType":"uint256","name":"amount","type":"uint256"}],"name":"withdrawTo","outputs":[],"stateMutability":"nonpayable","type":"function"},{"stateMutability":"payable","type":"receive"}],"evm":{"bytecode":{"linkReferences":{},"object":"60a03461010957601f6110c238819003918201601f19168301916001600160401b0383118484101761010e5780849260209460405283398101031261010957516001600160a01b0390818116908190036101095733156100f0576000543360018060a01b0319821617600055604051923391167f8be0079c531659141344cd1fd0a4f28419497f9722a3daafe3b4186f6b6457e0600080a36001805567016345785d8a0000600355608052610f9d908161012582396080518181816102dc015281816103af0152818161049001528181610522015281816105920152818161062a01528181610b310152610cdb0152f35b604051631e4fbdf760e01b815260006004820152602490fd5b600080fd5b634e487b7160e01b600052604160045260246000fdfe604060808152600480361015610048575b50361561001c57600080fd5b513481527f2da466a7b24304f47e87fa2e1e5a81b9831ce54fec19055ce277ca2f39ba42c460203392a2005b600090813560e01c80630396cb6014610cb2578063052d9e7e14610c4e5780631259a5c814610c2f5780631461205314610bdb578063205c287814610af7578063298141f914610aa55780633f4ba83a14610a3a5780634f698e1214610a1b57806351fb012d146109f757806352dd9e1e146109d857806353d6fd591461095d5780635c975abb14610939578063715018a6146108df5780638456cb59146108725780638da5cb5b1461084a5780639b19251a1461080c578063a58da0be14610701578063a9a23409146105c1578063b0d691fe1461057d578063bb9fe6bf14610505578063c23a5cea14610462578063c399ec8814610384578063d0e30db0146102c3578063ec4e405f146102a0578063f2fde38b1461020e5763f465c77e146101735750610010565b823461020a576060916003199083823601126102025780359167ffffffffffffffff831161020657610160908336030112610202576101b6916044359101610e58565b8291925194859383855280518094860152815b8481106101eb5750508383018501526020830152601f01601f19168101030190f35b6020828201810151898301890152889650016101c9565b8480fd5b8580fd5b8280fd5b5082903461020a57602036600319011261020a5761022a610d50565b90610233610d66565b6001600160a01b0391821692831561028a575050600054826bffffffffffffffffffffffff60a01b821617600055167f8be0079c531659141344cd1fd0a4f28419497f9722a3daafe3b4186f6b6457e0600080a380f35b51631e4fbdf760e01b8152908101849052602490fd5b8284346102bf57816003193601126102bf576020906005549051908152f35b5080fd5b50818391816003193601126102bf576102da610d66565b7f00000000000000000000000000000000000000000000000000000000000000006001600160a01b031690813b1561020a578290602485518094819363b760faf960e01b8352309083015234905af1801561037757610363575b5050513481527f2da466a7b24304f47e87fa2e1e5a81b9831ce54fec19055ce277ca2f39ba42c460203392a280f35b61036c90610d92565b6102bf578183610334565b50505051903d90823e3d90fd5b50823461020a578260031936011261020a5780516370a0823160e01b815230838201526020816024817f00000000000000000000000000000000000000000000000000000000000000006001600160a01b03165afa9283156104585784936103f1575b6020848451908152f35b909192506020903d8211610450575b601f8201601f191683019067ffffffffffffffff82118483101761043b5750602091839185528101031261020a5760209250519083806103e7565b604190634e487b7160e01b6000525260246000fd5b3d9150610400565b82513d86823e3d90fd5b508192346105015760203660031901126105015761047e610d50565b610486610d66565b6001600160a01b037f00000000000000000000000000000000000000000000000000000000000000008116803b15610206578592836024928651978895869463611d2e7560e11b865216908401525af19081156104f857506104e55750f35b6104ee90610d92565b6104f55780f35b80fd5b513d84823e3d90fd5b5050fd5b50819234610501578260031936011261050157610520610d66565b7f00000000000000000000000000000000000000000000000000000000000000006001600160a01b031691823b1561057857815163bb9fe6bf60e01b81529284918491829084905af19081156104f857506104e55750f35b505050fd5b8284346102bf57816003193601126102bf57517f00000000000000000000000000000000000000000000000000000000000000006001600160a01b03168152602090f35b5082903461020a57606036600319011261020a5780359160038310156106fd576024359067ffffffffffffffff808311610206573660238401121561020657828401359081116102065782013660248201116102065761061f610dd8565b6001600160a01b03937f0000000000000000000000000000000000000000000000000000000000000000851633036106ae5750829003126106a95760240135908116036106a957600103610675575b6001805580f35b620151804204600654811161069c575b50610694604435600554610e35565b60055561066e565b6006558060055581610685565b600080fd5b608490602084519162461bcd60e51b8352820152602360248201527f416453706f6e736f725061796d61737465723a206f6e6c7920456e747279506f6044820152621a5b9d60ea1b6064820152fd5b8380fd5b50823461020a578060031936011261020a5781359167ffffffffffffffff918284116102025736602385011215610202578382013592831161020257602493848101908536918660051b010111610206579261075b610d41565b610763610d66565b80151591875b818110610774578880f35b887ff93f9a76c1bf3444d22400a00cb9fe990e6abe9dbb333fda48859cfee864543d6001600160a01b03806107b26107ad86888e610dfb565b610e21565b1683526107d3868960209560088752209060ff801983541691151516179055565b6107e16107ad85878d610dfb565b16918751878152a260001981146107fa57600101610769565b634e487b7160e01b8952601186528789fd5b8284346102bf5760203660031901126102bf5760209160ff9082906001600160a01b03610837610d50565b1681526008855220541690519015158152f35b8284346102bf57816003193601126102bf57905490516001600160a01b039091168152602090f35b5082903461020a578260031936011261020a5761088d610d66565b6002549060ff82166108d1575060ff1916600117600255513381527f62e78cea01bee320cd4e420270b5ea74000d11b0c9f74754ebdbfc544b05a25890602090a180f35b825163d93c066560e01b8152fd5b82346104f557806003193601126104f5576108f8610d66565b600080546001600160a01b0319811682556001600160a01b03167f8be0079c531659141344cd1fd0a4f28419497f9722a3daafe3b4186f6b6457e08280a380f35b8284346102bf57816003193601126102bf5760209060ff6002541690519015158152f35b8284346102bf57806003193601126102bf577ff93f9a76c1bf3444d22400a00cb9fe990e6abe9dbb333fda48859cfee864543d602061099a610d50565b6109a2610d41565b906109ab610d66565b6001600160a01b031680865260088352848620805460ff191660ff8415151617905593519015158152a280f35b8284346102bf57816003193601126102bf576020906003549051908152f35b8284346102bf57816003193601126102bf5760209060ff6007541690519015158152f35b5082903461020a578260031936011261020a5760209250549051908152f35b5082903461020a578260031936011261020a57610a55610d66565b6002549060ff821615610a97575060ff1916600255513381527f5db9ee0a495bf2e6ff9c91a7834c1ba4fdd244a5e8aa4e537bd38aeae4b073aa90602090a180f35b8251638dfc202b60e01b8152fd5b50823461020a57602036600319011261020a57817f718e1debbe390c12c79cd2be0ff2c4db6d4abb369948de8cb3624cb7e24f9b1a9235610ae4610d66565b808254925582519182526020820152a180f35b50823461020a578060031936011261020a57610b11610d50565b908360243592610b1f610d66565b610b27610dd8565b6001600160a01b037f000000000000000000000000000000000000000000000000000000000000000081169190823b156106fd5760448492838751958694859363040b850f60e31b855216809b8401528960248401525af18015610bd157610bbd575b50507f7084f5476618d8e60b11ef0d7d3f06914655adb8793e28ff7f018d4c76d505d59160209151908152a26001805580f35b610bc690610d92565b6106fd578385610b8a565b83513d84823e3d90fd5b50823461020a57602036600319011261020a577f6f97f69819f39e54d5b710ae92b6f445ed86a56255acef7c0f80e92155664e0f9135610c19610d66565b600354908060035582519182526020820152a180f35b8284346102bf57816003193601126102bf576020906006549051908152f35b5082903461020a57602036600319011261020a5735908115158092036106a9577f49d3057180a80162d2a0381be6848c15e0d117e900366482dd3b5443ca8db97491602091610c9b610d66565b60ff196007541660ff83161760075551908152a180f35b5082602036600319011261020a5782823563ffffffff81168091036102bf57610cd9610d66565b7f00000000000000000000000000000000000000000000000000000000000000006001600160a01b031693843b1561020a5760249084519586938492621cb65b60e51b845283015234905af19081156104f85750610d35575080f35b610d3e90610d92565b80f35b6024359081151582036106a957565b600435906001600160a01b03821682036106a957565b6000546001600160a01b03163303610d7a57565b60405163118cdaa760e01b8152336004820152602490fd5b67ffffffffffffffff8111610da657604052565b634e487b7160e01b600052604160045260246000fd5b6020810190811067ffffffffffffffff821117610da657604052565b600260015414610de9576002600155565b604051633ee5aeb560e01b8152600490fd5b9190811015610e0b5760051b0190565b634e487b7160e01b600052603260045260246000fd5b356001600160a01b03811681036106a95790565b91908201809211610e4257565b634e487b7160e01b600052601160045260246000fd5b60ff60025416610f225760ff6007541680610ef8575b610ee0576003548211610ee05760045480610ec9575b50610e8e90610e21565b906040519160018060a01b031660208301526040820152604081526060810181811067ffffffffffffffff821117610da65760405290600090565b610ed583600554610e35565b11610ee05738610e84565b5050604051610eee81610dbc565b6000815290600190565b506001600160a01b03610f0a82610e21565b16600052600860205260ff6040600020541615610e6e565b60405162461bcd60e51b815260206004820152601a60248201527f416453706f6e736f725061796d61737465723a207061757365640000000000006044820152606490fdfea26469706673582212207a0ae4c363feead5baf22b6c4d4802acfe2222383e792cd59a532e1f78e2c7d664736f6c63430008140033","opcodes":"PUSH1 0xA0 CALLVALUE PUSH2 0x109 JUMPI PUSH1 0x1F PUSH2 0x10C2 CODESIZE DUP2 SWAP1 SUB SWAP2 DUP3 ADD PUSH1 0x1F NOT AND DUP4 ADD SWAP2 PUSH1 0x1 PUSH1 0x1 PUSH1 0x40 SHL SUB DUP4 GT DUP5 DUP5 LT OR PUSH2 0x10E JUMPI DUP1 DUP5 SWAP3 PUSH1 0x20 SWAP5 PUSH1 0x40 MSTORE DUP4 CODECOPY DUP2 ADD SUB SLT PUSH2 0x109 JUMPI MLOAD PUSH1 0x1 PUSH1 0x1 PUSH1 0xA0 SHL SUB SWAP1 DUP2 DUP2 AND SWAP1 DUP2 SWAP1 SUB PUSH2 0x109 JUMPI CALLER ISZERO PUSH2 0xF0 JUMPI PUSH1 0x0 SLOAD CALLER PUSH1 0x1 DUP1 PUSH1 0xA0 SHL SUB NOT DUP3 AND OR PUSH1 0x0 SSTORE PUSH1 0x40 MLOAD SWAP3 CALLER SWAP2 AND PUSH32 0x8BE0079C531659141344CD1FD0A4F28419497F9722A3DAAFE3B4186F6B6457E0 PUSH1 0x0 DUP1 LOG3 PUSH1 0x1 DUP1 SSTORE PUSH8 0x16345785D8A0000 PUSH1 0x3 SSTORE PUSH1 0x80 MSTORE PUSH2 0xF9D SWAP1 DUP2 PUSH2 0x125 DUP3 CODECOPY PUSH1 0x80 MLOAD DUP2 DUP2 DUP2 PUSH2 0x2DC ADD MSTORE DUP2 DUP2 PUSH2 0x3AF ADD MSTORE DUP2 DUP2 PUSH2 0x490 ADD MSTORE DUP2 DUP2 PUSH2 0x522 ADD MSTORE DUP2 DUP2 PUSH2 0x592 ADD MSTORE DUP2 DUP2 PUSH2 0x62A ADD MSTORE DUP2 DUP2 PUSH2 0xB31 ADD MSTORE PUSH2 0xCDB ADD MSTORE RETURN JUMPDEST PUSH1 0x40 MLOAD PUSH4 0x1E4FBDF7 PUSH1 0xE0 SHL DUP2 MSTORE PUSH1 0x0 PUSH1 0x4 DUP3 ADD MSTORE PUSH1 0x24 SWAP1 REVERT JUMPDEST PUSH1 0x0 DUP1 REVERT JUMPDEST PUSH4 0x4E487B71 PUSH1 0xE0 SHL PUSH1 0x0 MSTORE PUSH1 0x41 PUSH1 0x4 MSTORE PUSH1 0x24 PUSH1 0x0 REVERT INVALID PUSH1 0x40 PUSH1 0x80 DUP2 MSTORE PUSH1 0x4 DUP1 CALLDATASIZE LT ISZERO PUSH2 0x48 JUMPI JUMPDEST POP CALLDATASIZE ISZERO PUSH2 0x1C JUMPI PUSH1 0x0 DUP1 REVERT JUMPDEST MLOAD CALLVALUE DUP2 MSTORE PUSH32 0x2DA466A7B24304F47E87FA2E1E5A81B9831CE54FEC19055CE277CA2F39BA42C4 PUSH1 0x20 CALLER SWAP3 LOG2 STOP JUMPDEST PUSH1 0x0 SWAP1 DUP2 CALLDATALOAD PUSH1 0xE0 SHR DUP1 PUSH4 0x396CB60 EQ PUSH2 0xCB2 JUMPI DUP1 PUSH4 0x52D9E7E EQ PUSH2 0xC4E JUMPI DUP1 PUSH4 0x1259A5C8 EQ PUSH2 0xC2F JUMPI DUP1 PUSH4 0x14612053 EQ PUSH2 0xBDB JUMPI DUP1 PUSH4 0x205C2878 EQ PUSH2 0xAF7 JUMPI DUP1 PUSH4 0x298141F9 EQ PUSH2 0xAA5 JUMPI DUP1 PUSH4 0x3F4BA83A EQ PUSH2 0xA3A JUMPI DUP1 PUSH4 0x4F698E12 EQ PUSH2 0xA1B JUMPI DUP1 PUSH4 0x51FB012D EQ PUSH2 0x9F7 JUMPI DUP1 PUSH4 0x52DD9E1E EQ PUSH2 0x9D8 JUMPI DUP1 PUSH4 0x53D6FD59 EQ PUSH2 0x95D JUMPI DUP1 PUSH4 0x5C975ABB EQ PUSH2 0x939 JUMPI DUP1 PUSH4 0x715018A6 EQ PUSH2 0x8DF JUMPI DUP1 PUSH4 0x8456CB59 EQ PUSH2 0x872 JUMPI DUP1 PUSH4 0x8DA5CB5B EQ PUSH2 0x84A JUMPI DUP1 PUSH4 0x9B19251A EQ PUSH2 0x80C JUMPI DUP1 PUSH4 0xA58DA0BE EQ PUSH2 0x701 JUMPI DUP1 PUSH4 0xA9A23409 EQ PUSH2 0x5C1 JUMPI DUP1 PUSH4 0xB0D691FE EQ PUSH2 0x57D JUMPI DUP1 PUSH4 0xBB9FE6BF EQ PUSH2 0x505 JUMPI DUP1 PUSH4 0xC23A5CEA EQ PUSH2 0x462 JUMPI DUP1 PUSH4 0xC399EC88 EQ PUSH2 0x384 JUMPI DUP1 PUSH4 0xD0E30DB0 EQ PUSH2 0x2C3 JUMPI DUP1 PUSH4 0xEC4E405F EQ PUSH2 0x2A0 JUMPI DUP1 PUSH4 0xF2FDE38B EQ PUSH2 0x20E JUMPI PUSH4 0xF465C77E EQ PUSH2 0x173 JUMPI POP PUSH2 0x10 JUMP JUMPDEST DUP3 CALLVALUE PUSH2 0x20A JUMPI PUSH1 0x60 SWAP2 PUSH1 0x3 NOT SWAP1 DUP4 DUP3 CALLDATASIZE ADD SLT PUSH2 0x202 JUMPI DUP1 CALLDATALOAD SWAP2 PUSH8 0xFFFFFFFFFFFFFFFF DUP4 GT PUSH2 0x206 JUMPI PUSH2 0x160 SWAP1 DUP4 CALLDATASIZE SUB ADD SLT PUSH2 0x202 JUMPI PUSH2 0x1B6 SWAP2 PUSH1 0x44 CALLDATALOAD SWAP2 ADD PUSH2 0xE58 JUMP JUMPDEST DUP3 SWAP2 SWAP3 MLOAD SWAP5 DUP6 SWAP4 DUP4 DUP6 MSTORE DUP1 MLOAD DUP1 SWAP5 DUP7 ADD MSTORE DUP2 JUMPDEST DUP5 DUP2 LT PUSH2 0x1EB JUMPI POP POP DUP4 DUP4 ADD DUP6 ADD MSTORE PUSH1 0x20 DUP4 ADD MSTORE PUSH1 0x1F ADD PUSH1 0x1F NOT AND DUP2 ADD SUB ADD SWAP1 RETURN JUMPDEST PUSH1 0x20 DUP3 DUP3 ADD DUP2 ADD MLOAD DUP10 DUP4 ADD DUP10 ADD MSTORE DUP9 SWAP7 POP ADD PUSH2 0x1C9 JUMP JUMPDEST DUP5 DUP1 REVERT JUMPDEST DUP6 DUP1 REVERT JUMPDEST DUP3 DUP1 REVERT JUMPDEST POP DUP3 SWAP1 CALLVALUE PUSH2 0x20A JUMPI PUSH1 0x20 CALLDATASIZE PUSH1 0x3 NOT ADD SLT PUSH2 0x20A JUMPI PUSH2 0x22A PUSH2 0xD50 JUMP JUMPDEST SWAP1 PUSH2 0x233 PUSH2 0xD66 JUMP JUMPDEST PUSH1 0x1 PUSH1 0x1 PUSH1 0xA0 SHL SUB SWAP2 DUP3 AND SWAP3 DUP4 ISZERO PUSH2 0x28A JUMPI POP POP PUSH1 0x0 SLOAD DUP3 PUSH12 0xFFFFFFFFFFFFFFFFFFFFFFFF PUSH1 0xA0 SHL DUP3 AND OR PUSH1 0x0 SSTORE AND PUSH32 0x8BE0079C531659141344CD1FD0A4F28419497F9722A3DAAFE3B4186F6B6457E0 PUSH1 0x0 DUP1 LOG3 DUP1 RETURN JUMPDEST MLOAD PUSH4 0x1E4FBDF7 PUSH1 0xE0 SHL DUP2 MSTORE SWAP1 DUP2 ADD DUP5 SWAP1 MSTORE PUSH1 0x24 SWAP1 REVERT JUMPDEST DUP3 DUP5 CALLVALUE PUSH2 0x2BF JUMPI DUP2 PUSH1 0x3 NOT CALLDATASIZE ADD SLT PUSH2 0x2BF JUMPI PUSH1 0x20 SWAP1 PUSH1 0x5 SLOAD SWAP1 MLOAD SWAP1 DUP2 MSTORE RETURN JUMPDEST POP DUP1 REVERT JUMPDEST POP DUP2 DUP4 SWAP2 DUP2 PUSH1 0x3 NOT CALLDATASIZE ADD SLT PUSH2 0x2BF JUMPI PUSH2 0x2DA PUSH2 0xD66 JUMP JUMPDEST PUSH32 0x0 PUSH1 0x1 PUSH1 0x1 PUSH1 0xA0 SHL SUB AND SWAP1 DUP2 EXTCODESIZE ISZERO PUSH2 0x20A JUMPI DUP3 SWAP1 PUSH1 0x24 DUP6 MLOAD DUP1 SWAP5 DUP2 SWAP4 PUSH4 0xB760FAF9 PUSH1 0xE0 SHL DUP4 MSTORE ADDRESS SWAP1 DUP4 ADD MSTORE CALLVALUE SWAP1 GAS CALL DUP1 ISZERO PUSH2 0x377 JUMPI PUSH2 0x363 JUMPI JUMPDEST POP POP MLOAD CALLVALUE DUP2 MSTORE PUSH32 0x2DA466A7B24304F47E87FA2E1E5A81B9831CE54FEC19055CE277CA2F39BA42C4 PUSH1 0x20 CALLER SWAP3 LOG2 DUP1 RETURN JUMPDEST PUSH2 0x36C SWAP1 PUSH2 0xD92 JUMP JUMPDEST PUSH2 0x2BF JUMPI DUP2 DUP4 PUSH2 0x334 JUMP JUMPDEST POP POP POP MLOAD SWAP1 RETURNDATASIZE SWAP1 DUP3 RETURNDATACOPY RETURNDATASIZE SWAP1 REVERT JUMPDEST POP DUP3 CALLVALUE PUSH2 0x20A JUMPI DUP3 PUSH1 0x3 NOT CALLDATASIZE ADD SLT PUSH2 0x20A JUMPI DUP1 MLOAD PUSH4 0x70A08231 PUSH1 0xE0 SHL DUP2 MSTORE ADDRESS DUP4 DUP3 ADD MSTORE PUSH1 0x20 DUP2 PUSH1 0x24 DUP2 PUSH32 0x0 PUSH1 0x1 PUSH1 0x1 PUSH1 0xA0 SHL SUB AND GAS STATICCALL SWAP3 DUP4 ISZERO PUSH2 0x458 JUMPI DUP5 SWAP4 PUSH2 0x3F1 JUMPI JUMPDEST PUSH1 0x20 DUP5 DUP5 MLOAD SWAP1 DUP2 MSTORE RETURN JUMPDEST SWAP1 SWAP2 SWAP3 POP PUSH1 0x20 SWAP1 RETURNDATASIZE DUP3 GT PUSH2 0x450 JUMPI JUMPDEST PUSH1 0x1F DUP3 ADD PUSH1 0x1F NOT AND DUP4 ADD SWAP1 PUSH8 0xFFFFFFFFFFFFFFFF DUP3 GT DUP5 DUP4 LT OR PUSH2 0x43B JUMPI POP PUSH1 0x20 SWAP2 DUP4 SWAP2 DUP6 MSTORE DUP2 ADD SUB SLT PUSH2 0x20A JUMPI PUSH1 0x20 SWAP3 POP MLOAD SWAP1 DUP4 DUP1 PUSH2 0x3E7 JUMP JUMPDEST PUSH1 0x41 SWAP1 PUSH4 0x4E487B71 PUSH1 0xE0 SHL PUSH1 0x0 MSTORE MSTORE PUSH1 0x24 PUSH1 0x0 REVERT JUMPDEST RETURNDATASIZE SWAP2 POP PUSH2 0x400 JUMP JUMPDEST DUP3 MLOAD RETURNDATASIZE DUP7 DUP3 RETURNDATACOPY RETURNDATASIZE SWAP1 REVERT JUMPDEST POP DUP2 SWAP3 CALLVALUE PUSH2 0x501 JUMPI PUSH1 0x20 CALLDATASIZE PUSH1 0x3 NOT ADD SLT PUSH2 0x501 JUMPI PUSH2 0x47E PUSH2 0xD50 JUMP JUMPDEST PUSH2 0x486 PUSH2 0xD66 JUMP JUMPDEST PUSH1 0x1 PUSH1 0x1 PUSH1 0xA0 SHL SUB PUSH32 0x0 DUP2 AND DUP1 EXTCODESIZE ISZERO PUSH2 0x206 JUMPI DUP6 SWAP3 DUP4 PUSH1 0x24 SWAP3 DUP7 MLOAD SWAP8 DUP9 SWAP6 DUP7 SWAP5 PUSH4 0x611D2E75 PUSH1 0xE1 SHL DUP7 MSTORE AND SWAP1 DUP5 ADD MSTORE GAS CALL SWAP1 DUP2 ISZERO PUSH2 0x4F8 JUMPI POP PUSH2 0x4E5 JUMPI POP RETURN JUMPDEST PUSH2 0x4EE SWAP1 PUSH2 0xD92 JUMP JUMPDEST PUSH2 0x4F5 JUMPI DUP1 RETURN JUMPDEST DUP1 REVERT JUMPDEST MLOAD RETURNDATASIZE DUP5 DUP3 RETURNDATACOPY RETURNDATASIZE SWAP1 REVERT JUMPDEST POP POP REVERT JUMPDEST POP DUP2 SWAP3 CALLVALUE PUSH2 0x501 JUMPI DUP3 PUSH1 0x3 NOT CALLDATASIZE ADD SLT PUSH2 0x501 JUMPI PUSH2 0x520 PUSH2 0xD66 JUMP JUMPDEST PUSH32 0x0 PUSH1 0x1 PUSH1 0x1 PUSH1 0xA0 SHL SUB AND SWAP2 DUP3 EXTCODESIZE ISZERO PUSH2 0x578 JUMPI DUP2 MLOAD PUSH4 0xBB9FE6BF PUSH1 0xE0 SHL DUP2 MSTORE SWAP3 DUP5 SWAP2 DUP5 SWAP2 DUP3 SWAP1 DUP5 SWAP1 GAS CALL SWAP1 DUP2 ISZERO PUSH2 0x4F8 JUMPI POP PUSH2 0x4E5 JUMPI POP RETURN JUMPDEST POP POP POP REVERT JUMPDEST DUP3 DUP5 CALLVALUE PUSH2 0x2BF JUMPI DUP2 PUSH1 0x3 NOT CALLDATASIZE ADD SLT PUSH2 0x2BF JUMPI MLOAD PUSH32 0x0 PUSH1 0x1 PUSH1 0x1 PUSH1 0xA0 SHL SUB AND DUP2 MSTORE PUSH1 0x20 SWAP1 RETURN JUMPDEST POP DUP3 SWAP1 CALLVALUE PUSH2 0x20A JUMPI PUSH1 0x60 CALLDATASIZE PUSH1 0x3 NOT ADD SLT PUSH2 0x20A JUMPI DUP1 CALLDATALOAD SWAP2 PUSH1 0x3 DUP4 LT ISZERO PUSH2 0x6FD JUMPI PUSH1 0x24 CALLDATALOAD SWAP1 PUSH8 0xFFFFFFFFFFFFFFFF DUP1 DUP4 GT PUSH2 0x206 JUMPI CALLDATASIZE PUSH1 0x23 DUP5 ADD SLT ISZERO PUSH2 0x206 JUMPI DUP3 DUP5 ADD CALLDATALOAD SWAP1 DUP2 GT PUSH2 0x206 JUMPI DUP3 ADD CALLDATASIZE PUSH1 0x24 DUP3 ADD GT PUSH2 0x206 JUMPI PUSH2 0x61F PUSH2 0xDD8 JUMP JUMPDEST PUSH1 0x1 PUSH1 0x1 PUSH1 0xA0 SHL SUB SWAP4 PUSH32 0x0 DUP6 AND CALLER SUB PUSH2 0x6AE JUMPI POP DUP3 SWAP1 SUB SLT PUSH2 0x6A9 JUMPI PUSH1 0x24 ADD CALLDATALOAD SWAP1 DUP2 AND SUB PUSH2 0x6A9 JUMPI PUSH1 0x1 SUB PUSH2 0x675 JUMPI JUMPDEST PUSH1 0x1 DUP1 SSTORE DUP1 RETURN JUMPDEST PUSH3 0x15180 TIMESTAMP DIV PUSH1 0x6 SLOAD DUP2 GT PUSH2 0x69C JUMPI JUMPDEST POP PUSH2 0x694 PUSH1 0x44 CALLDATALOAD PUSH1 0x5 SLOAD PUSH2 0xE35 JUMP JUMPDEST PUSH1 0x5 SSTORE PUSH2 0x66E JUMP JUMPDEST PUSH1 0x6 SSTORE DUP1 PUSH1 0x5 SSTORE DUP2 PUSH2 0x685 JUMP JUMPDEST PUSH1 0x0 DUP1 REVERT JUMPDEST PUSH1 0x84 SWAP1 PUSH1 0x20 DUP5 MLOAD SWAP2 PUSH3 0x461BCD PUSH1 0xE5 SHL DUP4 MSTORE DUP3 ADD MSTORE PUSH1 0x23 PUSH1 0x24 DUP3 ADD MSTORE PUSH32 0x416453706F6E736F725061796D61737465723A206F6E6C7920456E747279506F PUSH1 0x44 DUP3 ADD MSTORE PUSH3 0x1A5B9D PUSH1 0xEA SHL PUSH1 0x64 DUP3 ADD MSTORE REVERT JUMPDEST DUP4 DUP1 REVERT JUMPDEST POP DUP3 CALLVALUE PUSH2 0x20A JUMPI DUP1 PUSH1 0x3 NOT CALLDATASIZE ADD SLT PUSH2 0x20A JUMPI DUP2 CALLDATALOAD SWAP2 PUSH8 0xFFFFFFFFFFFFFFFF SWAP2 DUP3 DUP5 GT PUSH2 0x202 JUMPI CALLDATASIZE PUSH1 0x23 DUP6 ADD SLT ISZERO PUSH2 0x202 JUMPI DUP4 DUP3 ADD CALLDATALOAD SWAP3 DUP4 GT PUSH2 0x202 JUMPI PUSH1 0x24 SWAP4 DUP5 DUP2 ADD SWAP1 DUP6 CALLDATASIZE SWAP2 DUP7 PUSH1 0x5 SHL ADD ADD GT PUSH2 0x206 JUMPI SWAP3 PUSH2 0x75B PUSH2 0xD41 JUMP JUMPDEST PUSH2 0x763 PUSH2 0xD66 JUMP JUMPDEST DUP1 ISZERO ISZERO SWAP2 DUP8 JUMPDEST DUP2 DUP2 LT PUSH2 0x774 JUMPI DUP9 DUP1 RETURN JUMPDEST DUP9 PUSH32 0xF93F9A76C1BF3444D22400A00CB9FE990E6ABE9DBB333FDA48859CFEE864543D PUSH1 0x1 PUSH1 0x1 PUSH1 0xA0 SHL SUB DUP1 PUSH2 0x7B2 PUSH2 0x7AD DUP7 DUP9 DUP15 PUSH2 0xDFB JUMP JUMPDEST PUSH2 0xE21 JUMP JUMPDEST AND DUP4 MSTORE PUSH2 0x7D3 DUP7 DUP10 PUSH1 0x20 SWAP6 PUSH1 0x8 DUP8 MSTORE KECCAK256 SWAP1 PUSH1 0xFF DUP1 NOT DUP4 SLOAD AND SWAP2 ISZERO ISZERO AND OR SWAP1 SSTORE JUMP JUMPDEST PUSH2 0x7E1 PUSH2 0x7AD DUP6 DUP8 DUP14 PUSH2 0xDFB JUMP JUMPDEST AND SWAP2 DUP8 MLOAD DUP8 DUP2 MSTORE LOG2 PUSH1 0x0 NOT DUP2 EQ PUSH2 0x7FA JUMPI PUSH1 0x1 ADD PUSH2 0x769 JUMP JUMPDEST PUSH4 0x4E487B71 PUSH1 0xE0 SHL DUP10 MSTORE PUSH1 0x11 DUP7 MSTORE DUP8 DUP10 REVERT JUMPDEST DUP3 DUP5 CALLVALUE PUSH2 0x2BF JUMPI PUSH1 0x20 CALLDATASIZE PUSH1 0x3 NOT ADD SLT PUSH2 0x2BF JUMPI PUSH1 0x20 SWAP2 PUSH1 0xFF SWAP1 DUP3 SWAP1 PUSH1 0x1 PUSH1 0x1 PUSH1 0xA0 SHL SUB PUSH2 0x837 PUSH2 0xD50 JUMP JUMPDEST AND DUP2 MSTORE PUSH1 0x8 DUP6 MSTORE KECCAK256 SLOAD AND SWAP1 MLOAD SWAP1 ISZERO ISZERO DUP2 MSTORE RETURN JUMPDEST DUP3 DUP5 CALLVALUE PUSH2 0x2BF JUMPI DUP2 PUSH1 0x3 NOT CALLDATASIZE ADD SLT PUSH2 0x2BF JUMPI SWAP1 SLOAD SWAP1 MLOAD PUSH1 0x1 PUSH1 0x1 PUSH1 0xA0 SHL SUB SWAP1 SWAP2 AND DUP2 MSTORE PUSH1 0x20 SWAP1 RETURN JUMPDEST POP DUP3 SWAP1 CALLVALUE PUSH2 0x20A JUMPI DUP3 PUSH1 0x3 NOT CALLDATASIZE ADD SLT PUSH2 0x20A JUMPI PUSH2 0x88D PUSH2 0xD66 JUMP JUMPDEST PUSH1 0x2 SLOAD SWAP1 PUSH1 0xFF DUP3 AND PUSH2 0x8D1 JUMPI POP PUSH1 0xFF NOT AND PUSH1 0x1 OR PUSH1 0x2 SSTORE MLOAD CALLER DUP2 MSTORE PUSH32 0x62E78CEA01BEE320CD4E420270B5EA74000D11B0C9F74754EBDBFC544B05A258 SWAP1 PUSH1 0x20 SWAP1 LOG1 DUP1 RETURN JUMPDEST DUP3 MLOAD PUSH4 0xD93C0665 PUSH1 0xE0 SHL DUP2 MSTORE REVERT JUMPDEST DUP3 CALLVALUE PUSH2 0x4F5 JUMPI DUP1 PUSH1 0x3 NOT CALLDATASIZE ADD SLT PUSH2 0x4F5 JUMPI PUSH2 0x8F8 PUSH2 0xD66 JUMP JUMPDEST PUSH1 0x0 DUP1 SLOAD PUSH1 0x1 PUSH1 0x1 PUSH1 0xA0 SHL SUB NOT DUP2 AND DUP3 SSTORE PUSH1 0x1 PUSH1 0x1 PUSH1 0xA0 SHL SUB AND PUSH32 0x8BE0079C531659141344CD1FD0A4F28419497F9722A3DAAFE3B4186F6B6457E0 DUP3 DUP1 LOG3 DUP1 RETURN JUMPDEST DUP3 DUP5 CALLVALUE PUSH2 0x2BF JUMPI DUP2 PUSH1 0x3 NOT CALLDATASIZE ADD SLT PUSH2 0x2BF JUMPI PUSH1 0x20 SWAP1 PUSH1 0xFF PUSH1 0x2 SLOAD AND SWAP1 MLOAD SWAP1 ISZERO ISZERO DUP2 MSTORE RETURN JUMPDEST DUP3 DUP5 CALLVALUE PUSH2 0x2BF JUMPI DUP1 PUSH1 0x3 NOT CALLDATASIZE ADD SLT PUSH2 0x2BF JUMPI PUSH32 0xF93F9A76C1BF3444D22400A00CB9FE990E6ABE9DBB333FDA48859CFEE864543D PUSH1 0x20 PUSH2 0x99A PUSH2 0xD50 JUMP JUMPDEST PUSH2 0x9A2 PUSH2 0xD41 JUMP JUMPDEST SWAP1 PUSH2 0x9AB PUSH2 0xD66 JUMP JUMPDEST PUSH1 0x1 PUSH1 0x1 PUSH1 0xA0 SHL SUB AND DUP1 DUP7 MSTORE PUSH1 0x8 DUP4 MSTORE DUP5 DUP7 KECCAK256 DUP1 SLOAD PUSH1 0xFF NOT AND PUSH1 0xFF DUP5 ISZERO ISZERO AND OR SWAP1 SSTORE SWAP4 MLOAD SWAP1 ISZERO ISZERO DUP2 MSTORE LOG2 DUP1 RETURN JUMPDEST DUP3 DUP5 CALLVALUE PUSH2 0x2BF JUMPI DUP2 PUSH1 0x3 NOT CALLDATASIZE ADD SLT PUSH2 0x2BF JUMPI PUSH1 0x20 SWAP1 PUSH1 0x3 SLOAD SWAP1 MLOAD SWAP1 DUP2 MSTORE RETURN JUMPDEST DUP3 DUP5 CALLVALUE PUSH2 0x2BF JUMPI DUP2 PUSH1 0x3 NOT CALLDATASIZE ADD SLT PUSH2 0x2BF JUMPI PUSH1 0x20 SWAP1 PUSH1 0xFF PUSH1 0x7 SLOAD AND SWAP1 MLOAD SWAP1 ISZERO ISZERO DUP2 MSTORE RETURN JUMPDEST POP DUP3 SWAP1 CALLVALUE PUSH2 0x20A JUMPI DUP3 PUSH1 0x3 NOT CALLDATASIZE ADD SLT PUSH2 0x20A JUMPI PUSH1 0x20 SWAP3 POP SLOAD SWAP1 MLOAD SWAP1 DUP2 MSTORE RETURN JUMPDEST POP DUP3 SWAP1 CALLVALUE PUSH2 0x20A JUMPI DUP3 PUSH1 0x3 NOT CALLDATASIZE ADD SLT PUSH2 0x20A JUMPI PUSH2 0xA55 PUSH2 0xD66 JUMP JUMPDEST PUSH1 0x2 SLOAD SWAP1 PUSH1 0xFF DUP3 AND ISZERO PUSH2 0xA97 JUMPI POP PUSH1 0xFF NOT AND PUSH1 0x2 SSTORE MLOAD CALLER DUP2 MSTORE PUSH32 0x5DB9EE0A495BF2E6FF9C91A7834C1BA4FDD244A5E8AA4E537BD38AEAE4B073AA SWAP1 PUSH1 0x20 SWAP1 LOG1 DUP1 RETURN JUMPDEST DUP3 MLOAD PUSH4 0x8DFC202B PUSH1 0xE0 SHL DUP2 MSTORE REVERT JUMPDEST POP DUP3 CALLVALUE PUSH2 0x20A JUMPI PUSH1 0x20 CALLDATASIZE PUSH1 0x3 NOT ADD SLT PUSH2 0x20A JUMPI DUP2 PUSH32 0x718E1DEBBE390C12C79CD2BE0FF2C4DB6D4ABB369948DE8CB3624CB7E24F9B1A SWAP3 CALLDATALOAD PUSH2 0xAE4 PUSH2 0xD66 JUMP JUMPDEST DUP1 DUP3 SLOAD SWAP3 SSTORE DUP3 MLOAD SWAP2 DUP3 MSTORE PUSH1 0x20 DUP3 ADD MSTORE LOG1 DUP1 RETURN JUMPDEST POP DUP3 CALLVALUE PUSH2 0x20A JUMPI DUP1 PUSH1 0x3 NOT CALLDATASIZE ADD SLT PUSH2 0x20A JUMPI PUSH2 0xB11 PUSH2 0xD50 JUMP JUMPDEST SWAP1 DUP4 PUSH1 0x24 CALLDATALOAD SWAP3 PUSH2 0xB1F PUSH2 0xD66 JUMP JUMPDEST PUSH2 0xB27 PUSH2 0xDD8 JUMP JUMPDEST PUSH1 0x1 PUSH1 0x1 PUSH1 0xA0 SHL SUB PUSH32 0x0 DUP2 AND SWAP2 SWAP1 DUP3 EXTCODESIZE ISZERO PUSH2 0x6FD JUMPI PUSH1 0x44 DUP5 SWAP3 DUP4 DUP8 MLOAD SWAP6 DUP7 SWAP5 DUP6 SWAP4 PUSH4 0x40B850F PUSH1 0xE3 SHL DUP6 MSTORE AND DUP1 SWAP12 DUP5 ADD MSTORE DUP10 PUSH1 0x24 DUP5 ADD MSTORE GAS CALL DUP1 ISZERO PUSH2 0xBD1 JUMPI PUSH2 0xBBD JUMPI JUMPDEST POP POP PUSH32 0x7084F5476618D8E60B11EF0D7D3F06914655ADB8793E28FF7F018D4C76D505D5 SWAP2 PUSH1 0x20 SWAP2 MLOAD SWAP1 DUP2 MSTORE LOG2 PUSH1 0x1 DUP1 SSTORE DUP1 RETURN JUMPDEST PUSH2 0xBC6 SWAP1 PUSH2 0xD92 JUMP JUMPDEST PUSH2 0x6FD JUMPI DUP4 DUP6 PUSH2 0xB8A JUMP JUMPDEST DUP4 MLOAD RETURNDATASIZE DUP5 DUP3 RETURNDATACOPY RETURNDATASIZE SWAP1 REVERT JUMPDEST POP DUP3 CALLVALUE PUSH2 0x20A JUMPI PUSH1 0x20 CALLDATASIZE PUSH1 0x3 NOT ADD SLT PUSH2 0x20A JUMPI PUSH32 0x6F97F69819F39E54D5B710AE92B6F445ED86A56255ACEF7C0F80E92155664E0F SWAP2 CALLDATALOAD PUSH2 0xC19 PUSH2 0xD66 JUMP JUMPDEST PUSH1 0x3 SLOAD SWAP1 DUP1 PUSH1 0x3 SSTORE DUP3 MLOAD SWAP2 DUP3 MSTORE PUSH1 0x20 DUP3 ADD MSTORE LOG1 DUP1 RETURN JUMPDEST DUP3 DUP5 CALLVALUE PUSH2 0x2BF JUMPI DUP2 PUSH1 0x3 NOT CALLDATASIZE ADD SLT PUSH2 0x2BF JUMPI PUSH1 0x20 SWAP1 PUSH1 0x6 SLOAD SWAP1 MLOAD SWAP1 DUP2 MSTORE RETURN JUMPDEST POP DUP3 SWAP1 CALLVALUE PUSH2 0x20A JUMPI PUSH1 0x20 CALLDATASIZE PUSH1 0x3 NOT ADD SLT PUSH2 0x20A JUMPI CALLDATALOAD SWAP1 DUP2 ISZERO ISZERO DUP1 SWAP3 SUB PUSH2 0x6A9 JUMPI PUSH32 0x49D3057180A80162D2A0381BE6848C15E0D117E900366482DD3B5443CA8DB974 SWAP2 PUSH1 0x20 SWAP2 PUSH2 0xC9B PUSH2 0xD66 JUMP JUMPDEST PUSH1 0xFF NOT PUSH1 0x7 SLOAD AND PUSH1 0xFF DUP4 AND OR PUSH1 0x7 SSTORE MLOAD SWAP1 DUP2 MSTORE LOG1 DUP1 RETURN JUMPDEST POP DUP3 PUSH1 0x20 CALLDATASIZE PUSH1 0x3 NOT ADD SLT PUSH2 0x20A JUMPI DUP3 DUP3 CALLDATALOAD PUSH4 0xFFFFFFFF DUP2 AND DUP1 SWAP2 SUB PUSH2 0x2BF JUMPI PUSH2 0xCD9 PUSH2 0xD66 JUMP JUMPDEST PUSH32 0x0 PUSH1 0x1 PUSH1 0x1 PUSH1 0xA0 SHL SUB AND SWAP4 DUP5 EXTCODESIZE ISZERO PUSH2 0x20A JUMPI PUSH1 0x24 SWAP1 DUP5 MLOAD SWAP6 DUP7 SWAP4 DUP5 SWAP3 PUSH3 0x1CB65B PUSH1 0xE5 SHL DUP5 MSTORE DUP4 ADD MSTORE CALLVALUE SWAP1 GAS CALL SWAP1 DUP2 ISZERO PUSH2 0x4F8 JUMPI POP PUSH2 0xD35 JUMPI POP DUP1 RETURN JUMPDEST PUSH2 0xD3E SWAP1 PUSH2 0xD92 JUMP JUMPDEST DUP1 RETURN JUMPDEST PUSH1 0x24 CALLDATALOAD SWAP1 DUP2 ISZERO ISZERO DUP3 SUB PUSH2 0x6A9 JUMPI JUMP JUMPDEST PUSH1 0x4 CALLDATALOAD SWAP1 PUSH1 0x1 PUSH1 0x1 PUSH1 0xA0 SHL SUB DUP3 AND DUP3 SUB PUSH2 0x6A9 JUMPI JUMP JUMPDEST PUSH1 0x0 SLOAD PUSH1 0x1 PUSH1 0x1 PUSH1 0xA0 SHL SUB AND CALLER SUB PUSH2 0xD7A JUMPI JUMP JUMPDEST PUSH1 0x40 MLOAD PUSH4 0x118CDAA7 PUSH1 0xE0 SHL DUP2 MSTORE CALLER PUSH1 0x4 DUP3 ADD MSTORE PUSH1 0x24 SWAP1 REVERT JUMPDEST PUSH8 0xFFFFFFFFFFFFFFFF DUP2 GT PUSH2 0xDA6 JUMPI PUSH1 0x40 MSTORE JUMP JUMPDEST PUSH4 0x4E487B71 PUSH1 0xE0 SHL PUSH1 0x0 MSTORE PUSH1 0x41 PUSH1 0x4 MSTORE PUSH1 0x24 PUSH1 0x0 REVERT JUMPDEST PUSH1 0x20 DUP2 ADD SWAP1 DUP2 LT PUSH8 0xFFFFFFFFFFFFFFFF DUP3 GT OR PUSH2 0xDA6 JUMPI PUSH1 0x40 MSTORE JUMP JUMPDEST PUSH1 0x2 PUSH1 0x1 SLOAD EQ PUSH2 0xDE9 JUMPI PUSH1 0x2 PUSH1 0x1 SSTORE JUMP JUMPDEST PUSH1 0x40 MLOAD PUSH4 0x3EE5AEB5 PUSH1 0xE0 SHL DUP2 MSTORE PUSH1 0x4 SWAP1 REVERT JUMPDEST SWAP2 SWAP1 DUP2 LT ISZERO PUSH2 0xE0B JUMPI PUSH1 0x5 SHL ADD SWAP1 JUMP JUMPDEST PUSH4 0x4E487B71 PUSH1 0xE0 SHL PUSH1 0x0 MSTORE PUSH1 0x32 PUSH1 0x4 MSTORE PUSH1 0x24 PUSH1 0x0 REVERT JUMPDEST CALLDATALOAD PUSH1 0x1 PUSH1 0x1 PUSH1 0xA0 SHL SUB DUP2 AND DUP2 SUB PUSH2 0x6A9 JUMPI SWAP1 JUMP JUMPDEST SWAP2 SWAP1 DUP3 ADD DUP1 SWAP3 GT PUSH2 0xE42 JUMPI JUMP JUMPDEST PUSH4 0x4E487B71 PUSH1 0xE0 SHL PUSH1 0x0 MSTORE PUSH1 0x11 PUSH1 0x4 MSTORE PUSH1 0x24 PUSH1 0x0 REVERT JUMPDEST PUSH1 0xFF PUSH1 0x2 SLOAD AND PUSH2 0xF22 JUMPI PUSH1 0xFF PUSH1 0x7 SLOAD AND DUP1 PUSH2 0xEF8 JUMPI JUMPDEST PUSH2 0xEE0 JUMPI PUSH1 0x3 SLOAD DUP3 GT PUSH2 0xEE0 JUMPI PUSH1 0x4 SLOAD DUP1 PUSH2 0xEC9 JUMPI JUMPDEST POP PUSH2 0xE8E SWAP1 PUSH2 0xE21 JUMP JUMPDEST SWAP1 PUSH1 0x40 MLOAD SWAP2 PUSH1 0x1 DUP1 PUSH1 0xA0 SHL SUB AND PUSH1 0x20 DUP4 ADD MSTORE PUSH1 0x40 DUP3 ADD MSTORE PUSH1 0x40 DUP2 MSTORE PUSH1 0x60 DUP2 ADD DUP2 DUP2 LT PUSH8 0xFFFFFFFFFFFFFFFF DUP3 GT OR PUSH2 0xDA6 JUMPI PUSH1 0x40 MSTORE SWAP1 PUSH1 0x0 SWAP1 JUMP JUMPDEST PUSH2 0xED5 DUP4 PUSH1 0x5 SLOAD PUSH2 0xE35 JUMP JUMPDEST GT PUSH2 0xEE0 JUMPI CODESIZE PUSH2 0xE84 JUMP JUMPDEST POP POP PUSH1 0x40 MLOAD PUSH2 0xEEE DUP2 PUSH2 0xDBC JUMP JUMPDEST PUSH1 0x0 DUP2 MSTORE SWAP1 PUSH1 0x1 SWAP1 JUMP JUMPDEST POP PUSH1 0x1 PUSH1 0x1 PUSH1 0xA0 SHL SUB PUSH2 0xF0A DUP3 PUSH2 0xE21 JUMP JUMPDEST AND PUSH1 0x0 MSTORE PUSH1 0x8 PUSH1 0x20 MSTORE PUSH1 0xFF PUSH1 0x40 PUSH1 0x0 KECCAK256 SLOAD AND ISZERO PUSH2 0xE6E JUMP JUMPDEST PUSH1 0x40 MLOAD PUSH3 0x461BCD PUSH1 0xE5 SHL DUP2 MSTORE PUSH1 0x20 PUSH1 0x4 DUP3 ADD MSTORE PUSH1 0x1A PUSH1 0x24 DUP3 ADD MSTORE PUSH32 0x416453706F6E736F725061796D61737465723A20706175736564000000000000 PUSH1 0x44 DUP3 ADD MSTORE PUSH1 0x64 SWAP1 REVERT INVALID LOG2 PUSH5 0x6970667358 0x22 SLT KECCAK256 PUSH27 0xAE4C363FEEAD5BAF22B6C4D4802ACFE2222383E792CD59A532E1F PUSH25 0xE2C7D664736F6C634300081400330000000000000000000000 "},"methodIdentifiers":{"addStake(uint32)":"0396cb60","dailyGasLimit()":"4f698e12","dailyGasUsed()":"ec4e405f","deposit()":"d0e30db0","entryPoint()":"b0d691fe","getDeposit()":"c399ec88","lastResetDay()":"1259a5c8","maxCostPerUserOp()":"52dd9e1e","owner()":"8da5cb5b","pause()":"8456cb59","paused()":"5c975abb","postOp(uint8,bytes,uint256)":"a9a23409","renounceOwnership()":"715018a6","setDailyGasLimit(uint256)":"298141f9","setMaxCostPerUserOp(uint256)":"14612053","setWhitelist(address,bool)":"53d6fd59","setWhitelistBatch(address[],bool)":"a58da0be","setWhitelistEnabled(bool)":"052d9e7e","transferOwnership(address)":"f2fde38b","unlockStake()":"bb9fe6bf","unpause()":"3f4ba83a","validatePaymasterUserOp((address,uint256,bytes,bytes,uint256,uint256,uint256,uint256,uint256,bytes,bytes),bytes32,uint256)":"f465c77e","whitelist(address)":"9b19251a","whitelistEnabled()":"51fb012d","withdrawStake(address)":"c23a5cea","withdrawTo(address,uint256)":"205c2878"}}}}}