{"contracts/AdWalletSponsoredTransfer.sol":{"AdWalletSponsoredTransfer":{"abi":[{"inputs":[{"internalType":"address","name":"_admin","type":"address"}],"stateMutability":"nonpayable","type":"constructor"},{"inputs":[],"name":"ECDSAInvalidSignature","type":"error"},{"inputs":[{"internalType":"uint256","name":"length","type":"uint256"}],"name":"ECDSAInvalidSignatureLength","type":"error"},{"inputs":[{"internalType":"bytes32","name":"s","type":"bytes32"}],"name":"ECDSAInvalidSignatureS","type":"error"},{"inputs":[],"name":"InvalidShortString","type":"error"},{"inputs":[{"internalType":"address","name":"token","type":"address"}],"name":"SafeERC20FailedOperation","type":"error"},{"inputs":[{"internalType":"string","name":"str","type":"string"}],"name":"StringTooLong","type":"error"},{"anonymous":false,"inputs":[],"name":"EIP712DomainChanged","type":"event"},{"anonymous":false,"inputs":[{"indexed":true,"internalType":"address","name":"admin","type":"address"},{"indexed":false,"internalType":"uint256","name":"amount","type":"uint256"}],"name":"NativeDeposited","type":"event"},{"anonymous":false,"inputs":[{"indexed":true,"internalType":"address","name":"from","type":"address"},{"indexed":true,"internalType":"address","name":"to","type":"address"},{"indexed":false,"internalType":"uint256","name":"amount","type":"uint256"},{"indexed":false,"internalType":"address","name":"token","type":"address"},{"indexed":false,"internalType":"uint256","name":"nonce","type":"uint256"}],"name":"SponsoredTransfer","type":"event"},{"inputs":[],"name":"admin","outputs":[{"internalType":"address","name":"","type":"address"}],"stateMutability":"view","type":"function"},{"inputs":[],"name":"depositNative","outputs":[],"stateMutability":"payable","type":"function"},{"inputs":[],"name":"eip712Domain","outputs":[{"internalType":"bytes1","name":"fields","type":"bytes1"},{"internalType":"string","name":"name","type":"string"},{"internalType":"string","name":"version","type":"string"},{"internalType":"uint256","name":"chainId","type":"uint256"},{"internalType":"address","name":"verifyingContract","type":"address"},{"internalType":"bytes32","name":"salt","type":"bytes32"},{"internalType":"uint256[]","name":"extensions","type":"uint256[]"}],"stateMutability":"view","type":"function"},{"inputs":[{"internalType":"address","name":"from","type":"address"},{"internalType":"address","name":"to","type":"address"},{"internalType":"uint256","name":"amount","type":"uint256"},{"internalType":"address","name":"token","type":"address"},{"internalType":"uint256","name":"chainId","type":"uint256"},{"internalType":"uint256","name":"nonce","type":"uint256"},{"internalType":"bytes","name":"signature","type":"bytes"}],"name":"executeSponsoredTransfer","outputs":[],"stateMutability":"nonpayable","type":"function"},{"inputs":[{"internalType":"address","name":"from","type":"address"},{"internalType":"address","name":"to","type":"address"},{"internalType":"uint256","name":"amount","type":"uint256"},{"internalType":"address","name":"token","type":"address"},{"internalType":"uint256","name":"chainId","type":"uint256"},{"internalType":"uint256","name":"nonce","type":"uint256"},{"internalType":"bytes","name":"signature","type":"bytes"},{"internalType":"uint256","name":"deadline","type":"uint256"},{"internalType":"uint8","name":"permitV","type":"uint8"},{"internalType":"bytes32","name":"permitR","type":"bytes32"},{"internalType":"bytes32","name":"permitS","type":"bytes32"}],"name":"executeSponsoredTransferWithPermit","outputs":[],"stateMutability":"nonpayable","type":"function"},{"inputs":[],"name":"getNativeDepositPool","outputs":[{"internalType":"uint256","name":"","type":"uint256"}],"stateMutability":"view","type":"function"},{"inputs":[],"name":"nativeDepositPool","outputs":[{"internalType":"uint256","name":"","type":"uint256"}],"stateMutability":"view","type":"function"},{"inputs":[{"internalType":"address","name":"","type":"address"}],"name":"nonces","outputs":[{"internalType":"uint256","name":"","type":"uint256"}],"stateMutability":"view","type":"function"},{"inputs":[{"internalType":"uint256","name":"amount","type":"uint256"}],"name":"withdrawNative","outputs":[],"stateMutability":"nonpayable","type":"function"}],"evm":{"bytecode":{"linkReferences":{},"object":"610160346200020d576001600160401b0390601f620017e238819003918201601f1916830192919084841183851017620001f75781602092849260409687528339810103126200020d57516001600160a01b03811691908290036200020d578051906200006c8262000212565b6019825260208201927f416457616c6c657453706f6e736f7265645472616e73666572000000000000008452815194620000a68662000212565b6001865260208601603160f81b8152620000c0856200022e565b95610120968752620000d28862000401565b95610140968752519020968760e052519020610100968188524660a05284519160208301917f8b73c3c69bb8fe3d512ecc4cf759cc79239f7b179b0ffacaa9a75d522b39400f83528684015260608301524660808301523060a083015260a0825260c082019282841090841117620001f757828552815190206080523060c0528215620001b357505060018060a01b0319600354161760035551916112339384620005af85396080518461110b015260a051846111d7015260c051846110d5015260e0518461115a015251836111800152518261052c015251816105560152f35b62461bcd60e51b8252602060c4820152601c60e48201527f41646d696e20616464726573732063616e6e6f74206265207a65726f0000000061010490910152606490fd5b634e487b7160e01b600052604160045260246000fd5b600080fd5b604081019081106001600160401b03821117620001f757604052565b80516020919082811015620002cd575090601f8251116200026c57808251920151908083106200025d57501790565b82600019910360031b1b161790565b90604051809263305a27a960e01b82528060048301528251908160248401526000935b828510620002b3575050604492506000838284010152601f80199101168101030190fd5b84810182015186860160440152938101938593506200028f565b6001600160401b038111620001f7576000928354926001938481811c91168015620003f6575b83821014620003e257601f8111620003ac575b5081601f8411600114620003455750928293918392869462000339575b50501b916000199060031b1c191617905560ff90565b01519250388062000323565b919083601f1981168780528488209488905b8883831062000391575050501062000377575b505050811b01905560ff90565b015160001960f88460031b161c191690553880806200036a565b85870151885590960195948501948793509081019062000357565b85805284601f848820920160051c820191601f860160051c015b828110620003d657505062000306565b878155018590620003c6565b634e487b7160e01b86526022600452602486fd5b90607f1690620002f3565b8051602090818110156200048f5750601f8251116200042e57808251920151908083106200025d57501790565b90604051809263305a27a960e01b82528060048301528251908160248401526000935b82851062000475575050604492506000838284010152601f80199101168101030190fd5b848101820151868601604401529381019385935062000451565b9192916001600160401b038111620001f75760019182548381811c91168015620005a3575b828210146200058d57601f811162000554575b5080601f831160011462000507575081929394600092620004fb575b5050600019600383901b1c191690821b17905560ff90565b015190503880620004e3565b90601f198316958460005282600020926000905b8882106200053c57505083859697106200037757505050811b01905560ff90565b8087859682949686015181550195019301906200051b565b8360005283601f83600020920160051c820191601f850160051c015b82811062000580575050620004c7565b6000815501849062000570565b634e487b7160e01b600052602260045260246000fd5b90607f1690620004b456fe608060408181526004918236101561001657600080fd5b600092833560e01c918263463a5ded146109f5575081635b97e3c4146107785781637ecebe001461074057816384276d811461063457816384b0196e14610514578163bd823c97146104f6578163d7ad6f3214610193578163db6b5246146100b3575063f851a4401461008857600080fd5b346100af57816003193601126100af5760035490516001600160a01b039091168152602090f35b5080fd5b90508260031936011261018f576003546001600160a01b03163303610154573415610112576100e3348254610d2e565b9055513481527fb5d7700fb0cf415158b8db7cc7c39f0eab16a825c92e221404b4c8bb099b4bbb60203392a280f35b6020606492519162461bcd60e51b8352820152601d60248201527f416d6f756e74206d7573742062652067726561746572207468616e20300000006044820152fd5b6020606492519162461bcd60e51b8352820152601660248201527513db9b1e4818591b5a5b8818d85b8819195c1bdcda5d60521b6044820152fd5b8280fd5b90503461018f5760e036600319011261018f576101ae610a10565b6101b6610a2b565b6101be610a41565b9360c4359067ffffffffffffffff82116104f25785916101e19036908701610a57565b6001600160a01b03808716808b526002602052848b20549098919791939192899289926102119060a43514610d51565b865180866044359a8c60a435918d60843592602087019561023196610d8d565b03601f19810182526102439082610af7565b80519060200120610253906110ac565b91369061025f92610ded565b61026891610f5b565b61027191611027565b161461027c90610e24565b8689526002602052828920805461029290610e64565b9055878616806103f857505080548381106103b55783471061037257836102b891610e73565b815587808080868989165af16102cc610e80565b501561032b57507f556d3e18aaafd7285db85803be3efcadf89efb4f0a06da33b9a08c811ccdde2c939291610325915b519081526001600160a01b03909616602087015260a43560408701529116939081906060820190565b0390a380f35b602060649261033b858454610d2e565b505162461bcd60e51b815291820152601660248201527513985d1a5d99481d1c985b9cd9995c8819985a5b195960521b6044820152fd5b506020606492519162461bcd60e51b8352820152601d60248201527f436f6e74726163742062616c616e636520696e73756666696369656e740000006044820152fd5b506020606492519162461bcd60e51b8352820152602060248201527f496e73756666696369656e74206e6174697665206465706f73697420706f6f6c6044820152fd5b9091839998979695949351636eb1769f60e11b81528782820152306024820152602081604481865afa9081156104e8579085918b916104af575b501061047357509761046e838561032595947f556d3e18aaafd7285db85803be3efcadf89efb4f0a06da33b9a08c811ccdde2c999a9b9c610eb0565b6102fc565b60649060208b519162461bcd60e51b83528201526016602482015275496e73756666696369656e7420616c6c6f77616e636560501b6044820152fd5b9150506020813d6020116104e0575b816104cb60209383610af7565b810103126104dc5784905138610432565b8980fd5b3d91506104be565b8b513d8c823e3d90fd5b8680fd5b90503461018f578260031936011261018f5760209250549051908152f35b9190503461018f578260031936011261018f576105507f0000000000000000000000000000000000000000000000000000000000000000610b19565b9261057a7f0000000000000000000000000000000000000000000000000000000000000000610c3f565b908251926020928385019585871067ffffffffffffffff88111761061f575092806105d58388966105c8998b9996528686528151998a99600f60f81b8b5260e0868c015260e08b0190610a85565b91898303908a0152610a85565b924660608801523060808801528460a088015286840360c088015251928381520193925b82811061060857505050500390f35b8351855286955093810193928101926001016105f9565b604190634e487b7160e01b6000525260246000fd5b9190503461018f57602036600319011261018f576003548235906001600160a01b031633036106fd5782548181106106c35784808361067582958395610e73565b8755335af1610682610e80565b501561068c578280f35b906020606492519162461bcd60e51b8352820152601160248201527015da5d1a191c985dd85b0819985a5b1959607a1b6044820152fd5b825162461bcd60e51b81526020818601526014602482015273496e73756666696369656e742062616c616e636560601b6044820152606490fd5b815162461bcd60e51b8152602081850152601760248201527f4f6e6c792061646d696e2063616e2077697468647261770000000000000000006044820152606490fd5b5050346100af5760203660031901126100af5760209181906001600160a01b03610768610a10565b1681526002845220549051908152f35b9190503461018f5761016036600319011261018f57610795610a10565b9161079e610a2b565b6107a6610a41565b9260c43567ffffffffffffffff81116104f2576107c69036908501610a57565b9093610104359160ff831683036109f1576001600160a01b03958787161561099c576108636108779261085d61086c936108558a8f8f8f908f908e6108226108499561083b948416815260026020528260a43591205414610d51565b5194859360a43592608435926044359160208801610d8d565b03601f198101835282610af7565b602081519101206110ac565b923691610ded565b90610f5b565b90929192611027565b861688871614610e24565b8487168852600260205282882061088e8154610e64565b90558486163b156109985760ff83519263d505accf60e01b845286891683850152306024850152604435604485015260e43560648501521660848301526101243560a48301526101443560c4830152878260e48183898b165af1801561098e5761095c575b505090610325837f556d3e18aaafd7285db85803be3efcadf89efb4f0a06da33b9a08c811ccdde2c949361092d604435858a858b16610eb0565b5160443581526001600160a01b03909616602087015260a4356040870152919092169416929081906060820190565b67ffffffffffffffff829893981161097b5750865294610325836108f3565b634e487b7160e01b835260419052602482fd5b83513d8a823e3d90fd5b8780fd5b845162461bcd60e51b8152602081850152602960248201527f4e617469766520746f6b656e20757365206578656375746553706f6e736f7265604482015268322a3930b739b332b960b91b6064820152608490fd5b8880fd5b84913461018f578260031936011261018f5760209250548152f35b600435906001600160a01b0382168203610a2657565b600080fd5b602435906001600160a01b0382168203610a2657565b606435906001600160a01b0382168203610a2657565b9181601f84011215610a265782359167ffffffffffffffff8311610a265760208381860195010111610a2657565b919082519283825260005b848110610ab1575050826000602080949584010152601f8019910116010190565b602081830181015184830182015201610a90565b6040810190811067ffffffffffffffff821117610ae157604052565b634e487b7160e01b600052604160045260246000fd5b90601f8019910116810190811067ffffffffffffffff821117610ae157604052565b60ff8114610b575760ff811690601f8211610b455760405191610b3b83610ac5565b8252602082015290565b604051632cd44ac360e21b8152600490fd5b506040516000805490600182811c90808416938415610c35575b6020948584108114610c215783875286949392918115610c015750600114610ba5575b5050610ba292500382610af7565b90565b60008080527f290decd9548b62a8d60345a988386fc84ba6bc95484008f6362f93160ef3e56395935091905b818310610be9575050610ba293508201013880610b94565b85548784018501529485019486945091830191610bd1565b915050610ba294925060ff191682840152151560051b8201013880610b94565b634e487b7160e01b85526022600452602485fd5b91607f1691610b71565b60ff8114610c615760ff811690601f8211610b455760405191610b3b83610ac5565b50604051600060019081549182811c90808416938415610d08575b6020948584108114610c215783875286949392918115610c015750600114610cac575050610ba292500382610af7565b60008181527fb10e2d527612073b26eecdfd717e6a320cf44b4afac2b0732d9fcbe2b7fa0cf695935091905b818310610cf0575050610ba293508201013880610b94565b85548784018501529485019486945091830191610cd8565b91607f1691610c7c565b67ffffffffffffffff8111610ae157601f01601f191660200190565b91908201809211610d3b57565b634e487b7160e01b600052601160045260246000fd5b15610d5857565b60405162461bcd60e51b815260206004820152600d60248201526c496e76616c6964206e6f6e636560981b6044820152606490fd5b7f9d77a72d248b83f2fae439b26af5306b3f0a82246b2eaed167df5f2e60c088fd81526001600160a01b039182166020820152918116604083015260608201929092529116608082015260a081019190915260c081019190915260e00190565b929192610df982610d12565b91610e076040519384610af7565b829481845281830111610a26578281602093846000960137010152565b15610e2b57565b60405162461bcd60e51b8152602060048201526011602482015270496e76616c6964207369676e617475726560781b6044820152606490fd5b6000198114610d3b5760010190565b91908203918211610d3b57565b3d15610eab573d90610e9182610d12565b91610e9f6040519384610af7565b82523d6000602084013e565b606090565b6040516323b872dd60e01b602082019081526001600160a01b039384166024830152938316604482015260648082019590955293845292909160a082019067ffffffffffffffff821183831017610ae157602092600092604052519082865af115610f4f576000513d610f4657508082163b155b610f2c575050565b604051635274afe760e01b81529116600482015260249150fd5b60011415610f24565b6040513d6000823e3d90fd5b8151919060418303610f8c57610f8592506020820151906060604084015193015160001a90610f97565b9192909190565b505060009160029190565b91907f7fffffffffffffffffffffffffffffff5d576e7357a4501ddfe92f46681b20a0841161101b57926020929160ff608095604051948552168484015260408301526060820152600092839182805260015afa1561100f5780516001600160a01b0381161561100657918190565b50809160019190565b604051903d90823e3d90fd5b50505060009160039190565b60048110156110965780611039575050565b600181036110535760405163f645eedf60e01b8152600490fd5b600281036110745760405163fce698f760e01b815260048101839052602490fd5b60031461107e5750565b602490604051906335e2f38360e21b82526004820152fd5b634e487b7160e01b600052602160045260246000fd5b6042906110b76110d2565b906040519161190160f01b8352600283015260228201522090565b307f00000000000000000000000000000000000000000000000000000000000000006001600160a01b031614806111d4575b1561112d577f000000000000000000000000000000000000000000000000000000000000000090565b60405160208101907f8b73c3c69bb8fe3d512ecc4cf759cc79239f7b179b0ffacaa9a75d522b39400f82527f000000000000000000000000000000000000000000000000000000000000000060408201527f000000000000000000000000000000000000000000000000000000000000000060608201524660808201523060a082015260a0815260c0810181811067ffffffffffffffff821117610ae15760405251902090565b507f0000000000000000000000000000000000000000000000000000000000000000461461110456fea2646970667358221220f0a432f7eb7f3ab157af772771b7924eb3163a1900bbbe3b06db16cd2d8b006664736f6c63430008140033","opcodes":"PUSH2 0x160 CALLVALUE PUSH3 0x20D JUMPI PUSH1 0x1 PUSH1 0x1 PUSH1 0x40 SHL SUB SWAP1 PUSH1 0x1F PUSH3 0x17E2 CODESIZE DUP2 SWAP1 SUB SWAP2 DUP3 ADD PUSH1 0x1F NOT AND DUP4 ADD SWAP3 SWAP2 SWAP1 DUP5 DUP5 GT DUP4 DUP6 LT OR PUSH3 0x1F7 JUMPI DUP2 PUSH1 0x20 SWAP3 DUP5 SWAP3 PUSH1 0x40 SWAP7 DUP8 MSTORE DUP4 CODECOPY DUP2 ADD SUB SLT PUSH3 0x20D JUMPI MLOAD PUSH1 0x1 PUSH1 0x1 PUSH1 0xA0 SHL SUB DUP2 AND SWAP2 SWAP1 DUP3 SWAP1 SUB PUSH3 0x20D JUMPI DUP1 MLOAD SWAP1 PUSH3 0x6C DUP3 PUSH3 0x212 JUMP JUMPDEST PUSH1 0x19 DUP3 MSTORE PUSH1 0x20 DUP3 ADD SWAP3 PUSH32 0x416457616C6C657453706F6E736F7265645472616E7366657200000000000000 DUP5 MSTORE DUP2 MLOAD SWAP5 PUSH3 0xA6 DUP7 PUSH3 0x212 JUMP JUMPDEST PUSH1 0x1 DUP7 MSTORE PUSH1 0x20 DUP7 ADD PUSH1 0x31 PUSH1 0xF8 SHL DUP2 MSTORE PUSH3 0xC0 DUP6 PUSH3 0x22E JUMP JUMPDEST SWAP6 PUSH2 0x120 SWAP7 DUP8 MSTORE PUSH3 0xD2 DUP9 PUSH3 0x401 JUMP JUMPDEST SWAP6 PUSH2 0x140 SWAP7 DUP8 MSTORE MLOAD SWAP1 KECCAK256 SWAP7 DUP8 PUSH1 0xE0 MSTORE MLOAD SWAP1 KECCAK256 PUSH2 0x100 SWAP7 DUP2 DUP9 MSTORE CHAINID PUSH1 0xA0 MSTORE DUP5 MLOAD SWAP2 PUSH1 0x20 DUP4 ADD SWAP2 PUSH32 0x8B73C3C69BB8FE3D512ECC4CF759CC79239F7B179B0FFACAA9A75D522B39400F DUP4 MSTORE DUP7 DUP5 ADD MSTORE PUSH1 0x60 DUP4 ADD MSTORE CHAINID PUSH1 0x80 DUP4 ADD MSTORE ADDRESS PUSH1 0xA0 DUP4 ADD MSTORE PUSH1 0xA0 DUP3 MSTORE PUSH1 0xC0 DUP3 ADD SWAP3 DUP3 DUP5 LT SWAP1 DUP5 GT OR PUSH3 0x1F7 JUMPI DUP3 DUP6 MSTORE DUP2 MLOAD SWAP1 KECCAK256 PUSH1 0x80 MSTORE ADDRESS PUSH1 0xC0 MSTORE DUP3 ISZERO PUSH3 0x1B3 JUMPI POP POP PUSH1 0x1 DUP1 PUSH1 0xA0 SHL SUB NOT PUSH1 0x3 SLOAD AND OR PUSH1 0x3 SSTORE MLOAD SWAP2 PUSH2 0x1233 SWAP4 DUP5 PUSH3 0x5AF DUP6 CODECOPY PUSH1 0x80 MLOAD DUP5 PUSH2 0x110B ADD MSTORE PUSH1 0xA0 MLOAD DUP5 PUSH2 0x11D7 ADD MSTORE PUSH1 0xC0 MLOAD DUP5 PUSH2 0x10D5 ADD MSTORE PUSH1 0xE0 MLOAD DUP5 PUSH2 0x115A ADD MSTORE MLOAD DUP4 PUSH2 0x1180 ADD MSTORE MLOAD DUP3 PUSH2 0x52C ADD MSTORE MLOAD DUP2 PUSH2 0x556 ADD MSTORE RETURN JUMPDEST PUSH3 0x461BCD PUSH1 0xE5 SHL DUP3 MSTORE PUSH1 0x20 PUSH1 0xC4 DUP3 ADD MSTORE PUSH1 0x1C PUSH1 0xE4 DUP3 ADD MSTORE PUSH32 0x41646D696E20616464726573732063616E6E6F74206265207A65726F00000000 PUSH2 0x104 SWAP1 SWAP2 ADD MSTORE PUSH1 0x64 SWAP1 REVERT JUMPDEST PUSH4 0x4E487B71 PUSH1 0xE0 SHL PUSH1 0x0 MSTORE PUSH1 0x41 PUSH1 0x4 MSTORE PUSH1 0x24 PUSH1 0x0 REVERT JUMPDEST PUSH1 0x0 DUP1 REVERT JUMPDEST PUSH1 0x40 DUP2 ADD SWAP1 DUP2 LT PUSH1 0x1 PUSH1 0x1 PUSH1 0x40 SHL SUB DUP3 GT OR PUSH3 0x1F7 JUMPI PUSH1 0x40 MSTORE JUMP JUMPDEST DUP1 MLOAD PUSH1 0x20 SWAP2 SWAP1 DUP3 DUP2 LT ISZERO PUSH3 0x2CD JUMPI POP SWAP1 PUSH1 0x1F DUP3 MLOAD GT PUSH3 0x26C JUMPI DUP1 DUP3 MLOAD SWAP3 ADD MLOAD SWAP1 DUP1 DUP4 LT PUSH3 0x25D JUMPI POP OR SWAP1 JUMP JUMPDEST DUP3 PUSH1 0x0 NOT SWAP2 SUB PUSH1 0x3 SHL SHL AND OR SWAP1 JUMP JUMPDEST SWAP1 PUSH1 0x40 MLOAD DUP1 SWAP3 PUSH4 0x305A27A9 PUSH1 0xE0 SHL DUP3 MSTORE DUP1 PUSH1 0x4 DUP4 ADD MSTORE DUP3 MLOAD SWAP1 DUP2 PUSH1 0x24 DUP5 ADD MSTORE PUSH1 0x0 SWAP4 JUMPDEST DUP3 DUP6 LT PUSH3 0x2B3 JUMPI POP POP PUSH1 0x44 SWAP3 POP PUSH1 0x0 DUP4 DUP3 DUP5 ADD ADD MSTORE PUSH1 0x1F DUP1 NOT SWAP2 ADD AND DUP2 ADD SUB ADD SWAP1 REVERT JUMPDEST DUP5 DUP2 ADD DUP3 ADD MLOAD DUP7 DUP7 ADD PUSH1 0x44 ADD MSTORE SWAP4 DUP2 ADD SWAP4 DUP6 SWAP4 POP PUSH3 0x28F JUMP JUMPDEST PUSH1 0x1 PUSH1 0x1 PUSH1 0x40 SHL SUB DUP2 GT PUSH3 0x1F7 JUMPI PUSH1 0x0 SWAP3 DUP4 SLOAD SWAP3 PUSH1 0x1 SWAP4 DUP5 DUP2 DUP2 SHR SWAP2 AND DUP1 ISZERO PUSH3 0x3F6 JUMPI JUMPDEST DUP4 DUP3 LT EQ PUSH3 0x3E2 JUMPI PUSH1 0x1F DUP2 GT PUSH3 0x3AC JUMPI JUMPDEST POP DUP2 PUSH1 0x1F DUP5 GT PUSH1 0x1 EQ PUSH3 0x345 JUMPI POP SWAP3 DUP3 SWAP4 SWAP2 DUP4 SWAP3 DUP7 SWAP5 PUSH3 0x339 JUMPI JUMPDEST POP POP SHL SWAP2 PUSH1 0x0 NOT SWAP1 PUSH1 0x3 SHL SHR NOT AND OR SWAP1 SSTORE PUSH1 0xFF SWAP1 JUMP JUMPDEST ADD MLOAD SWAP3 POP CODESIZE DUP1 PUSH3 0x323 JUMP JUMPDEST SWAP2 SWAP1 DUP4 PUSH1 0x1F NOT DUP2 AND DUP8 DUP1 MSTORE DUP5 DUP9 KECCAK256 SWAP5 DUP9 SWAP1 JUMPDEST DUP9 DUP4 DUP4 LT PUSH3 0x391 JUMPI POP POP POP LT PUSH3 0x377 JUMPI JUMPDEST POP POP POP DUP2 SHL ADD SWAP1 SSTORE PUSH1 0xFF SWAP1 JUMP JUMPDEST ADD MLOAD PUSH1 0x0 NOT PUSH1 0xF8 DUP5 PUSH1 0x3 SHL AND SHR NOT AND SWAP1 SSTORE CODESIZE DUP1 DUP1 PUSH3 0x36A JUMP JUMPDEST DUP6 DUP8 ADD MLOAD DUP9 SSTORE SWAP1 SWAP7 ADD SWAP6 SWAP5 DUP6 ADD SWAP5 DUP8 SWAP4 POP SWAP1 DUP2 ADD SWAP1 PUSH3 0x357 JUMP JUMPDEST DUP6 DUP1 MSTORE DUP5 PUSH1 0x1F DUP5 DUP9 KECCAK256 SWAP3 ADD PUSH1 0x5 SHR DUP3 ADD SWAP2 PUSH1 0x1F DUP7 ADD PUSH1 0x5 SHR ADD JUMPDEST DUP3 DUP2 LT PUSH3 0x3D6 JUMPI POP POP PUSH3 0x306 JUMP JUMPDEST DUP8 DUP2 SSTORE ADD DUP6 SWAP1 PUSH3 0x3C6 JUMP JUMPDEST PUSH4 0x4E487B71 PUSH1 0xE0 SHL DUP7 MSTORE PUSH1 0x22 PUSH1 0x4 MSTORE PUSH1 0x24 DUP7 REVERT JUMPDEST SWAP1 PUSH1 0x7F AND SWAP1 PUSH3 0x2F3 JUMP JUMPDEST DUP1 MLOAD PUSH1 0x20 SWAP1 DUP2 DUP2 LT ISZERO PUSH3 0x48F JUMPI POP PUSH1 0x1F DUP3 MLOAD GT PUSH3 0x42E JUMPI DUP1 DUP3 MLOAD SWAP3 ADD MLOAD SWAP1 DUP1 DUP4 LT PUSH3 0x25D JUMPI POP OR SWAP1 JUMP JUMPDEST SWAP1 PUSH1 0x40 MLOAD DUP1 SWAP3 PUSH4 0x305A27A9 PUSH1 0xE0 SHL DUP3 MSTORE DUP1 PUSH1 0x4 DUP4 ADD MSTORE DUP3 MLOAD SWAP1 DUP2 PUSH1 0x24 DUP5 ADD MSTORE PUSH1 0x0 SWAP4 JUMPDEST DUP3 DUP6 LT PUSH3 0x475 JUMPI POP POP PUSH1 0x44 SWAP3 POP PUSH1 0x0 DUP4 DUP3 DUP5 ADD ADD MSTORE PUSH1 0x1F DUP1 NOT SWAP2 ADD AND DUP2 ADD SUB ADD SWAP1 REVERT JUMPDEST DUP5 DUP2 ADD DUP3 ADD MLOAD DUP7 DUP7 ADD PUSH1 0x44 ADD MSTORE SWAP4 DUP2 ADD SWAP4 DUP6 SWAP4 POP PUSH3 0x451 JUMP JUMPDEST SWAP2 SWAP3 SWAP2 PUSH1 0x1 PUSH1 0x1 PUSH1 0x40 SHL SUB DUP2 GT PUSH3 0x1F7 JUMPI PUSH1 0x1 SWAP2 DUP3 SLOAD DUP4 DUP2 DUP2 SHR SWAP2 AND DUP1 ISZERO PUSH3 0x5A3 JUMPI JUMPDEST DUP3 DUP3 LT EQ PUSH3 0x58D JUMPI PUSH1 0x1F DUP2 GT PUSH3 0x554 JUMPI JUMPDEST POP DUP1 PUSH1 0x1F DUP4 GT PUSH1 0x1 EQ PUSH3 0x507 JUMPI POP DUP2 SWAP3 SWAP4 SWAP5 PUSH1 0x0 SWAP3 PUSH3 0x4FB JUMPI JUMPDEST POP POP PUSH1 0x0 NOT PUSH1 0x3 DUP4 SWAP1 SHL SHR NOT AND SWAP1 DUP3 SHL OR SWAP1 SSTORE PUSH1 0xFF SWAP1 JUMP JUMPDEST ADD MLOAD SWAP1 POP CODESIZE DUP1 PUSH3 0x4E3 JUMP JUMPDEST SWAP1 PUSH1 0x1F NOT DUP4 AND SWAP6 DUP5 PUSH1 0x0 MSTORE DUP3 PUSH1 0x0 KECCAK256 SWAP3 PUSH1 0x0 SWAP1 JUMPDEST DUP9 DUP3 LT PUSH3 0x53C JUMPI POP POP DUP4 DUP6 SWAP7 SWAP8 LT PUSH3 0x377 JUMPI POP POP POP DUP2 SHL ADD SWAP1 SSTORE PUSH1 0xFF SWAP1 JUMP JUMPDEST DUP1 DUP8 DUP6 SWAP7 DUP3 SWAP5 SWAP7 DUP7 ADD MLOAD DUP2 SSTORE ADD SWAP6 ADD SWAP4 ADD SWAP1 PUSH3 0x51B JUMP JUMPDEST DUP4 PUSH1 0x0 MSTORE DUP4 PUSH1 0x1F DUP4 PUSH1 0x0 KECCAK256 SWAP3 ADD PUSH1 0x5 SHR DUP3 ADD SWAP2 PUSH1 0x1F DUP6 ADD PUSH1 0x5 SHR ADD JUMPDEST DUP3 DUP2 LT PUSH3 0x580 JUMPI POP POP PUSH3 0x4C7 JUMP JUMPDEST PUSH1 0x0 DUP2 SSTORE ADD DUP5 SWAP1 PUSH3 0x570 JUMP JUMPDEST PUSH4 0x4E487B71 PUSH1 0xE0 SHL PUSH1 0x0 MSTORE PUSH1 0x22 PUSH1 0x4 MSTORE PUSH1 0x24 PUSH1 0x0 REVERT JUMPDEST SWAP1 PUSH1 0x7F AND SWAP1 PUSH3 0x4B4 JUMP INVALID PUSH1 0x80 PUSH1 0x40 DUP2 DUP2 MSTORE PUSH1 0x4 SWAP2 DUP3 CALLDATASIZE LT ISZERO PUSH2 0x16 JUMPI PUSH1 0x0 DUP1 REVERT JUMPDEST PUSH1 0x0 SWAP3 DUP4 CALLDATALOAD PUSH1 0xE0 SHR SWAP2 DUP3 PUSH4 0x463A5DED EQ PUSH2 0x9F5 JUMPI POP DUP2 PUSH4 0x5B97E3C4 EQ PUSH2 0x778 JUMPI DUP2 PUSH4 0x7ECEBE00 EQ PUSH2 0x740 JUMPI DUP2 PUSH4 0x84276D81 EQ PUSH2 0x634 JUMPI DUP2 PUSH4 0x84B0196E EQ PUSH2 0x514 JUMPI DUP2 PUSH4 0xBD823C97 EQ PUSH2 0x4F6 JUMPI DUP2 PUSH4 0xD7AD6F32 EQ PUSH2 0x193 JUMPI DUP2 PUSH4 0xDB6B5246 EQ PUSH2 0xB3 JUMPI POP PUSH4 0xF851A440 EQ PUSH2 0x88 JUMPI PUSH1 0x0 DUP1 REVERT JUMPDEST CALLVALUE PUSH2 0xAF JUMPI DUP2 PUSH1 0x3 NOT CALLDATASIZE ADD SLT PUSH2 0xAF JUMPI PUSH1 0x3 SLOAD SWAP1 MLOAD PUSH1 0x1 PUSH1 0x1 PUSH1 0xA0 SHL SUB SWAP1 SWAP2 AND DUP2 MSTORE PUSH1 0x20 SWAP1 RETURN JUMPDEST POP DUP1 REVERT JUMPDEST SWAP1 POP DUP3 PUSH1 0x3 NOT CALLDATASIZE ADD SLT PUSH2 0x18F JUMPI PUSH1 0x3 SLOAD PUSH1 0x1 PUSH1 0x1 PUSH1 0xA0 SHL SUB AND CALLER SUB PUSH2 0x154 JUMPI CALLVALUE ISZERO PUSH2 0x112 JUMPI PUSH2 0xE3 CALLVALUE DUP3 SLOAD PUSH2 0xD2E JUMP JUMPDEST SWAP1 SSTORE MLOAD CALLVALUE DUP2 MSTORE PUSH32 0xB5D7700FB0CF415158B8DB7CC7C39F0EAB16A825C92E221404B4C8BB099B4BBB PUSH1 0x20 CALLER SWAP3 LOG2 DUP1 RETURN JUMPDEST PUSH1 0x20 PUSH1 0x64 SWAP3 MLOAD SWAP2 PUSH3 0x461BCD PUSH1 0xE5 SHL DUP4 MSTORE DUP3 ADD MSTORE PUSH1 0x1D PUSH1 0x24 DUP3 ADD MSTORE PUSH32 0x416D6F756E74206D7573742062652067726561746572207468616E2030000000 PUSH1 0x44 DUP3 ADD MSTORE REVERT JUMPDEST PUSH1 0x20 PUSH1 0x64 SWAP3 MLOAD SWAP2 PUSH3 0x461BCD PUSH1 0xE5 SHL DUP4 MSTORE DUP3 ADD MSTORE PUSH1 0x16 PUSH1 0x24 DUP3 ADD MSTORE PUSH22 0x13DB9B1E4818591B5A5B8818D85B8819195C1BDCDA5D PUSH1 0x52 SHL PUSH1 0x44 DUP3 ADD MSTORE REVERT JUMPDEST DUP3 DUP1 REVERT JUMPDEST SWAP1 POP CALLVALUE PUSH2 0x18F JUMPI PUSH1 0xE0 CALLDATASIZE PUSH1 0x3 NOT ADD SLT PUSH2 0x18F JUMPI PUSH2 0x1AE PUSH2 0xA10 JUMP JUMPDEST PUSH2 0x1B6 PUSH2 0xA2B JUMP JUMPDEST PUSH2 0x1BE PUSH2 0xA41 JUMP JUMPDEST SWAP4 PUSH1 0xC4 CALLDATALOAD SWAP1 PUSH8 0xFFFFFFFFFFFFFFFF DUP3 GT PUSH2 0x4F2 JUMPI DUP6 SWAP2 PUSH2 0x1E1 SWAP1 CALLDATASIZE SWAP1 DUP8 ADD PUSH2 0xA57 JUMP JUMPDEST PUSH1 0x1 PUSH1 0x1 PUSH1 0xA0 SHL SUB DUP1 DUP8 AND DUP1 DUP12 MSTORE PUSH1 0x2 PUSH1 0x20 MSTORE DUP5 DUP12 KECCAK256 SLOAD SWAP1 SWAP9 SWAP2 SWAP8 SWAP2 SWAP4 SWAP2 SWAP3 DUP10 SWAP3 DUP10 SWAP3 PUSH2 0x211 SWAP1 PUSH1 0xA4 CALLDATALOAD EQ PUSH2 0xD51 JUMP JUMPDEST DUP7 MLOAD DUP1 DUP7 PUSH1 0x44 CALLDATALOAD SWAP11 DUP13 PUSH1 0xA4 CALLDATALOAD SWAP2 DUP14 PUSH1 0x84 CALLDATALOAD SWAP3 PUSH1 0x20 DUP8 ADD SWAP6 PUSH2 0x231 SWAP7 PUSH2 0xD8D JUMP JUMPDEST SUB PUSH1 0x1F NOT DUP2 ADD DUP3 MSTORE PUSH2 0x243 SWAP1 DUP3 PUSH2 0xAF7 JUMP JUMPDEST DUP1 MLOAD SWAP1 PUSH1 0x20 ADD KECCAK256 PUSH2 0x253 SWAP1 PUSH2 0x10AC JUMP JUMPDEST SWAP2 CALLDATASIZE SWAP1 PUSH2 0x25F SWAP3 PUSH2 0xDED JUMP JUMPDEST PUSH2 0x268 SWAP2 PUSH2 0xF5B JUMP JUMPDEST PUSH2 0x271 SWAP2 PUSH2 0x1027 JUMP JUMPDEST AND EQ PUSH2 0x27C SWAP1 PUSH2 0xE24 JUMP JUMPDEST DUP7 DUP10 MSTORE PUSH1 0x2 PUSH1 0x20 MSTORE DUP3 DUP10 KECCAK256 DUP1 SLOAD PUSH2 0x292 SWAP1 PUSH2 0xE64 JUMP JUMPDEST SWAP1 SSTORE DUP8 DUP7 AND DUP1 PUSH2 0x3F8 JUMPI POP POP DUP1 SLOAD DUP4 DUP2 LT PUSH2 0x3B5 JUMPI DUP4 SELFBALANCE LT PUSH2 0x372 JUMPI DUP4 PUSH2 0x2B8 SWAP2 PUSH2 0xE73 JUMP JUMPDEST DUP2 SSTORE DUP8 DUP1 DUP1 DUP1 DUP7 DUP10 DUP10 AND GAS CALL PUSH2 0x2CC PUSH2 0xE80 JUMP JUMPDEST POP ISZERO PUSH2 0x32B JUMPI POP PUSH32 0x556D3E18AAAFD7285DB85803BE3EFCADF89EFB4F0A06DA33B9A08C811CCDDE2C SWAP4 SWAP3 SWAP2 PUSH2 0x325 SWAP2 JUMPDEST MLOAD SWAP1 DUP2 MSTORE PUSH1 0x1 PUSH1 0x1 PUSH1 0xA0 SHL SUB SWAP1 SWAP7 AND PUSH1 0x20 DUP8 ADD MSTORE PUSH1 0xA4 CALLDATALOAD PUSH1 0x40 DUP8 ADD MSTORE SWAP2 AND SWAP4 SWAP1 DUP2 SWAP1 PUSH1 0x60 DUP3 ADD SWAP1 JUMP JUMPDEST SUB SWAP1 LOG3 DUP1 RETURN JUMPDEST PUSH1 0x20 PUSH1 0x64 SWAP3 PUSH2 0x33B DUP6 DUP5 SLOAD PUSH2 0xD2E JUMP JUMPDEST POP MLOAD PUSH3 0x461BCD PUSH1 0xE5 SHL DUP2 MSTORE SWAP2 DUP3 ADD MSTORE PUSH1 0x16 PUSH1 0x24 DUP3 ADD MSTORE PUSH22 0x13985D1A5D99481D1C985B9CD9995C8819985A5B1959 PUSH1 0x52 SHL PUSH1 0x44 DUP3 ADD MSTORE REVERT JUMPDEST POP PUSH1 0x20 PUSH1 0x64 SWAP3 MLOAD SWAP2 PUSH3 0x461BCD PUSH1 0xE5 SHL DUP4 MSTORE DUP3 ADD MSTORE PUSH1 0x1D PUSH1 0x24 DUP3 ADD MSTORE PUSH32 0x436F6E74726163742062616C616E636520696E73756666696369656E74000000 PUSH1 0x44 DUP3 ADD MSTORE REVERT JUMPDEST POP PUSH1 0x20 PUSH1 0x64 SWAP3 MLOAD SWAP2 PUSH3 0x461BCD PUSH1 0xE5 SHL DUP4 MSTORE DUP3 ADD MSTORE PUSH1 0x20 PUSH1 0x24 DUP3 ADD MSTORE PUSH32 0x496E73756666696369656E74206E6174697665206465706F73697420706F6F6C PUSH1 0x44 DUP3 ADD MSTORE REVERT JUMPDEST SWAP1 SWAP2 DUP4 SWAP10 SWAP9 SWAP8 SWAP7 SWAP6 SWAP5 SWAP4 MLOAD PUSH4 0x6EB1769F PUSH1 0xE1 SHL DUP2 MSTORE DUP8 DUP3 DUP3 ADD MSTORE ADDRESS PUSH1 0x24 DUP3 ADD MSTORE PUSH1 0x20 DUP2 PUSH1 0x44 DUP2 DUP7 GAS STATICCALL SWAP1 DUP2 ISZERO PUSH2 0x4E8 JUMPI SWAP1 DUP6 SWAP2 DUP12 SWAP2 PUSH2 0x4AF JUMPI JUMPDEST POP LT PUSH2 0x473 JUMPI POP SWAP8 PUSH2 0x46E DUP4 DUP6 PUSH2 0x325 SWAP6 SWAP5 PUSH32 0x556D3E18AAAFD7285DB85803BE3EFCADF89EFB4F0A06DA33B9A08C811CCDDE2C SWAP10 SWAP11 SWAP12 SWAP13 PUSH2 0xEB0 JUMP JUMPDEST PUSH2 0x2FC JUMP JUMPDEST PUSH1 0x64 SWAP1 PUSH1 0x20 DUP12 MLOAD SWAP2 PUSH3 0x461BCD PUSH1 0xE5 SHL DUP4 MSTORE DUP3 ADD MSTORE PUSH1 0x16 PUSH1 0x24 DUP3 ADD MSTORE PUSH22 0x496E73756666696369656E7420616C6C6F77616E6365 PUSH1 0x50 SHL PUSH1 0x44 DUP3 ADD MSTORE REVERT JUMPDEST SWAP2 POP POP PUSH1 0x20 DUP2 RETURNDATASIZE PUSH1 0x20 GT PUSH2 0x4E0 JUMPI JUMPDEST DUP2 PUSH2 0x4CB PUSH1 0x20 SWAP4 DUP4 PUSH2 0xAF7 JUMP JUMPDEST DUP2 ADD SUB SLT PUSH2 0x4DC JUMPI DUP5 SWAP1 MLOAD CODESIZE PUSH2 0x432 JUMP JUMPDEST DUP10 DUP1 REVERT JUMPDEST RETURNDATASIZE SWAP2 POP PUSH2 0x4BE JUMP JUMPDEST DUP12 MLOAD RETURNDATASIZE DUP13 DUP3 RETURNDATACOPY RETURNDATASIZE SWAP1 REVERT JUMPDEST DUP7 DUP1 REVERT JUMPDEST SWAP1 POP CALLVALUE PUSH2 0x18F JUMPI DUP3 PUSH1 0x3 NOT CALLDATASIZE ADD SLT PUSH2 0x18F JUMPI PUSH1 0x20 SWAP3 POP SLOAD SWAP1 MLOAD SWAP1 DUP2 MSTORE RETURN JUMPDEST SWAP2 SWAP1 POP CALLVALUE PUSH2 0x18F JUMPI DUP3 PUSH1 0x3 NOT CALLDATASIZE ADD SLT PUSH2 0x18F JUMPI PUSH2 0x550 PUSH32 0x0 PUSH2 0xB19 JUMP JUMPDEST SWAP3 PUSH2 0x57A PUSH32 0x0 PUSH2 0xC3F JUMP JUMPDEST SWAP1 DUP3 MLOAD SWAP3 PUSH1 0x20 SWAP3 DUP4 DUP6 ADD SWAP6 DUP6 DUP8 LT PUSH8 0xFFFFFFFFFFFFFFFF DUP9 GT OR PUSH2 0x61F JUMPI POP SWAP3 DUP1 PUSH2 0x5D5 DUP4 DUP9 SWAP7 PUSH2 0x5C8 SWAP10 DUP12 SWAP10 SWAP7 MSTORE DUP7 DUP7 MSTORE DUP2 MLOAD SWAP10 DUP11 SWAP10 PUSH1 0xF PUSH1 0xF8 SHL DUP12 MSTORE PUSH1 0xE0 DUP7 DUP13 ADD MSTORE PUSH1 0xE0 DUP12 ADD SWAP1 PUSH2 0xA85 JUMP JUMPDEST SWAP2 DUP10 DUP4 SUB SWAP1 DUP11 ADD MSTORE PUSH2 0xA85 JUMP JUMPDEST SWAP3 CHAINID PUSH1 0x60 DUP9 ADD MSTORE ADDRESS PUSH1 0x80 DUP9 ADD MSTORE DUP5 PUSH1 0xA0 DUP9 ADD MSTORE DUP7 DUP5 SUB PUSH1 0xC0 DUP9 ADD MSTORE MLOAD SWAP3 DUP4 DUP2 MSTORE ADD SWAP4 SWAP3 JUMPDEST DUP3 DUP2 LT PUSH2 0x608 JUMPI POP POP POP POP SUB SWAP1 RETURN JUMPDEST DUP4 MLOAD DUP6 MSTORE DUP7 SWAP6 POP SWAP4 DUP2 ADD SWAP4 SWAP3 DUP2 ADD SWAP3 PUSH1 0x1 ADD PUSH2 0x5F9 JUMP JUMPDEST PUSH1 0x41 SWAP1 PUSH4 0x4E487B71 PUSH1 0xE0 SHL PUSH1 0x0 MSTORE MSTORE PUSH1 0x24 PUSH1 0x0 REVERT JUMPDEST SWAP2 SWAP1 POP CALLVALUE PUSH2 0x18F JUMPI PUSH1 0x20 CALLDATASIZE PUSH1 0x3 NOT ADD SLT PUSH2 0x18F JUMPI PUSH1 0x3 SLOAD DUP3 CALLDATALOAD SWAP1 PUSH1 0x1 PUSH1 0x1 PUSH1 0xA0 SHL SUB AND CALLER SUB PUSH2 0x6FD JUMPI DUP3 SLOAD DUP2 DUP2 LT PUSH2 0x6C3 JUMPI DUP5 DUP1 DUP4 PUSH2 0x675 DUP3 SWAP6 DUP4 SWAP6 PUSH2 0xE73 JUMP JUMPDEST DUP8 SSTORE CALLER GAS CALL PUSH2 0x682 PUSH2 0xE80 JUMP JUMPDEST POP ISZERO PUSH2 0x68C JUMPI DUP3 DUP1 RETURN JUMPDEST SWAP1 PUSH1 0x20 PUSH1 0x64 SWAP3 MLOAD SWAP2 PUSH3 0x461BCD PUSH1 0xE5 SHL DUP4 MSTORE DUP3 ADD MSTORE PUSH1 0x11 PUSH1 0x24 DUP3 ADD MSTORE PUSH17 0x15DA5D1A191C985DD85B0819985A5B1959 PUSH1 0x7A SHL PUSH1 0x44 DUP3 ADD MSTORE REVERT JUMPDEST DUP3 MLOAD PUSH3 0x461BCD PUSH1 0xE5 SHL DUP2 MSTORE PUSH1 0x20 DUP2 DUP7 ADD MSTORE PUSH1 0x14 PUSH1 0x24 DUP3 ADD MSTORE PUSH20 0x496E73756666696369656E742062616C616E6365 PUSH1 0x60 SHL PUSH1 0x44 DUP3 ADD MSTORE PUSH1 0x64 SWAP1 REVERT JUMPDEST DUP2 MLOAD PUSH3 0x461BCD PUSH1 0xE5 SHL DUP2 MSTORE PUSH1 0x20 DUP2 DUP6 ADD MSTORE PUSH1 0x17 PUSH1 0x24 DUP3 ADD MSTORE PUSH32 0x4F6E6C792061646D696E2063616E207769746864726177000000000000000000 PUSH1 0x44 DUP3 ADD MSTORE PUSH1 0x64 SWAP1 REVERT JUMPDEST POP POP CALLVALUE PUSH2 0xAF JUMPI PUSH1 0x20 CALLDATASIZE PUSH1 0x3 NOT ADD SLT PUSH2 0xAF JUMPI PUSH1 0x20 SWAP2 DUP2 SWAP1 PUSH1 0x1 PUSH1 0x1 PUSH1 0xA0 SHL SUB PUSH2 0x768 PUSH2 0xA10 JUMP JUMPDEST AND DUP2 MSTORE PUSH1 0x2 DUP5 MSTORE KECCAK256 SLOAD SWAP1 MLOAD SWAP1 DUP2 MSTORE RETURN JUMPDEST SWAP2 SWAP1 POP CALLVALUE PUSH2 0x18F JUMPI PUSH2 0x160 CALLDATASIZE PUSH1 0x3 NOT ADD SLT PUSH2 0x18F JUMPI PUSH2 0x795 PUSH2 0xA10 JUMP JUMPDEST SWAP2 PUSH2 0x79E PUSH2 0xA2B JUMP JUMPDEST PUSH2 0x7A6 PUSH2 0xA41 JUMP JUMPDEST SWAP3 PUSH1 0xC4 CALLDATALOAD PUSH8 0xFFFFFFFFFFFFFFFF DUP2 GT PUSH2 0x4F2 JUMPI PUSH2 0x7C6 SWAP1 CALLDATASIZE SWAP1 DUP6 ADD PUSH2 0xA57 JUMP JUMPDEST SWAP1 SWAP4 PUSH2 0x104 CALLDATALOAD SWAP2 PUSH1 0xFF DUP4 AND DUP4 SUB PUSH2 0x9F1 JUMPI PUSH1 0x1 PUSH1 0x1 PUSH1 0xA0 SHL SUB SWAP6 DUP8 DUP8 AND ISZERO PUSH2 0x99C JUMPI PUSH2 0x863 PUSH2 0x877 SWAP3 PUSH2 0x85D PUSH2 0x86C SWAP4 PUSH2 0x855 DUP11 DUP16 DUP16 DUP16 SWAP1 DUP16 SWAP1 DUP15 PUSH2 0x822 PUSH2 0x849 SWAP6 PUSH2 0x83B SWAP5 DUP5 AND DUP2 MSTORE PUSH1 0x2 PUSH1 0x20 MSTORE DUP3 PUSH1 0xA4 CALLDATALOAD SWAP2 KECCAK256 SLOAD EQ PUSH2 0xD51 JUMP JUMPDEST MLOAD SWAP5 DUP6 SWAP4 PUSH1 0xA4 CALLDATALOAD SWAP3 PUSH1 0x84 CALLDATALOAD SWAP3 PUSH1 0x44 CALLDATALOAD SWAP2 PUSH1 0x20 DUP9 ADD PUSH2 0xD8D JUMP JUMPDEST SUB PUSH1 0x1F NOT DUP2 ADD DUP4 MSTORE DUP3 PUSH2 0xAF7 JUMP JUMPDEST PUSH1 0x20 DUP2 MLOAD SWAP2 ADD KECCAK256 PUSH2 0x10AC JUMP JUMPDEST SWAP3 CALLDATASIZE SWAP2 PUSH2 0xDED JUMP JUMPDEST SWAP1 PUSH2 0xF5B JUMP JUMPDEST SWAP1 SWAP3 SWAP2 SWAP3 PUSH2 0x1027 JUMP JUMPDEST DUP7 AND DUP9 DUP8 AND EQ PUSH2 0xE24 JUMP JUMPDEST DUP5 DUP8 AND DUP9 MSTORE PUSH1 0x2 PUSH1 0x20 MSTORE DUP3 DUP9 KECCAK256 PUSH2 0x88E DUP2 SLOAD PUSH2 0xE64 JUMP JUMPDEST SWAP1 SSTORE DUP5 DUP7 AND EXTCODESIZE ISZERO PUSH2 0x998 JUMPI PUSH1 0xFF DUP4 MLOAD SWAP3 PUSH4 0xD505ACCF PUSH1 0xE0 SHL DUP5 MSTORE DUP7 DUP10 AND DUP4 DUP6 ADD MSTORE ADDRESS PUSH1 0x24 DUP6 ADD MSTORE PUSH1 0x44 CALLDATALOAD PUSH1 0x44 DUP6 ADD MSTORE PUSH1 0xE4 CALLDATALOAD PUSH1 0x64 DUP6 ADD MSTORE AND PUSH1 0x84 DUP4 ADD MSTORE PUSH2 0x124 CALLDATALOAD PUSH1 0xA4 DUP4 ADD MSTORE PUSH2 0x144 CALLDATALOAD PUSH1 0xC4 DUP4 ADD MSTORE DUP8 DUP3 PUSH1 0xE4 DUP2 DUP4 DUP10 DUP12 AND GAS CALL DUP1 ISZERO PUSH2 0x98E JUMPI PUSH2 0x95C JUMPI JUMPDEST POP POP SWAP1 PUSH2 0x325 DUP4 PUSH32 0x556D3E18AAAFD7285DB85803BE3EFCADF89EFB4F0A06DA33B9A08C811CCDDE2C SWAP5 SWAP4 PUSH2 0x92D PUSH1 0x44 CALLDATALOAD DUP6 DUP11 DUP6 DUP12 AND PUSH2 0xEB0 JUMP JUMPDEST MLOAD PUSH1 0x44 CALLDATALOAD DUP2 MSTORE PUSH1 0x1 PUSH1 0x1 PUSH1 0xA0 SHL SUB SWAP1 SWAP7 AND PUSH1 0x20 DUP8 ADD MSTORE PUSH1 0xA4 CALLDATALOAD PUSH1 0x40 DUP8 ADD MSTORE SWAP2 SWAP1 SWAP3 AND SWAP5 AND SWAP3 SWAP1 DUP2 SWAP1 PUSH1 0x60 DUP3 ADD SWAP1 JUMP JUMPDEST PUSH8 0xFFFFFFFFFFFFFFFF DUP3 SWAP9 SWAP4 SWAP9 GT PUSH2 0x97B JUMPI POP DUP7 MSTORE SWAP5 PUSH2 0x325 DUP4 PUSH2 0x8F3 JUMP JUMPDEST PUSH4 0x4E487B71 PUSH1 0xE0 SHL DUP4 MSTORE PUSH1 0x41 SWAP1 MSTORE PUSH1 0x24 DUP3 REVERT JUMPDEST DUP4 MLOAD RETURNDATASIZE DUP11 DUP3 RETURNDATACOPY RETURNDATASIZE SWAP1 REVERT JUMPDEST DUP8 DUP1 REVERT JUMPDEST DUP5 MLOAD PUSH3 0x461BCD PUSH1 0xE5 SHL DUP2 MSTORE PUSH1 0x20 DUP2 DUP6 ADD MSTORE PUSH1 0x29 PUSH1 0x24 DUP3 ADD MSTORE PUSH32 0x4E617469766520746F6B656E20757365206578656375746553706F6E736F7265 PUSH1 0x44 DUP3 ADD MSTORE PUSH9 0x322A3930B739B332B9 PUSH1 0xB9 SHL PUSH1 0x64 DUP3 ADD MSTORE PUSH1 0x84 SWAP1 REVERT JUMPDEST DUP9 DUP1 REVERT JUMPDEST DUP5 SWAP2 CALLVALUE PUSH2 0x18F JUMPI DUP3 PUSH1 0x3 NOT CALLDATASIZE ADD SLT PUSH2 0x18F JUMPI PUSH1 0x20 SWAP3 POP SLOAD DUP2 MSTORE RETURN JUMPDEST PUSH1 0x4 CALLDATALOAD SWAP1 PUSH1 0x1 PUSH1 0x1 PUSH1 0xA0 SHL SUB DUP3 AND DUP3 SUB PUSH2 0xA26 JUMPI JUMP JUMPDEST PUSH1 0x0 DUP1 REVERT JUMPDEST PUSH1 0x24 CALLDATALOAD SWAP1 PUSH1 0x1 PUSH1 0x1 PUSH1 0xA0 SHL SUB DUP3 AND DUP3 SUB PUSH2 0xA26 JUMPI JUMP JUMPDEST PUSH1 0x64 CALLDATALOAD SWAP1 PUSH1 0x1 PUSH1 0x1 PUSH1 0xA0 SHL SUB DUP3 AND DUP3 SUB PUSH2 0xA26 JUMPI JUMP JUMPDEST SWAP2 DUP2 PUSH1 0x1F DUP5 ADD SLT ISZERO PUSH2 0xA26 JUMPI DUP3 CALLDATALOAD SWAP2 PUSH8 0xFFFFFFFFFFFFFFFF DUP4 GT PUSH2 0xA26 JUMPI PUSH1 0x20 DUP4 DUP2 DUP7 ADD SWAP6 ADD ADD GT PUSH2 0xA26 JUMPI JUMP JUMPDEST SWAP2 SWAP1 DUP3 MLOAD SWAP3 DUP4 DUP3 MSTORE PUSH1 0x0 JUMPDEST DUP5 DUP2 LT PUSH2 0xAB1 JUMPI POP POP DUP3 PUSH1 0x0 PUSH1 0x20 DUP1 SWAP5 SWAP6 DUP5 ADD ADD MSTORE PUSH1 0x1F DUP1 NOT SWAP2 ADD AND ADD ADD SWAP1 JUMP JUMPDEST PUSH1 0x20 DUP2 DUP4 ADD DUP2 ADD MLOAD DUP5 DUP4 ADD DUP3 ADD MSTORE ADD PUSH2 0xA90 JUMP JUMPDEST PUSH1 0x40 DUP2 ADD SWAP1 DUP2 LT PUSH8 0xFFFFFFFFFFFFFFFF DUP3 GT OR PUSH2 0xAE1 JUMPI PUSH1 0x40 MSTORE JUMP JUMPDEST PUSH4 0x4E487B71 PUSH1 0xE0 SHL PUSH1 0x0 MSTORE PUSH1 0x41 PUSH1 0x4 MSTORE PUSH1 0x24 PUSH1 0x0 REVERT JUMPDEST SWAP1 PUSH1 0x1F DUP1 NOT SWAP2 ADD AND DUP2 ADD SWAP1 DUP2 LT PUSH8 0xFFFFFFFFFFFFFFFF DUP3 GT OR PUSH2 0xAE1 JUMPI PUSH1 0x40 MSTORE JUMP JUMPDEST PUSH1 0xFF DUP2 EQ PUSH2 0xB57 JUMPI PUSH1 0xFF DUP2 AND SWAP1 PUSH1 0x1F DUP3 GT PUSH2 0xB45 JUMPI PUSH1 0x40 MLOAD SWAP2 PUSH2 0xB3B DUP4 PUSH2 0xAC5 JUMP JUMPDEST DUP3 MSTORE PUSH1 0x20 DUP3 ADD MSTORE SWAP1 JUMP JUMPDEST PUSH1 0x40 MLOAD PUSH4 0x2CD44AC3 PUSH1 0xE2 SHL DUP2 MSTORE PUSH1 0x4 SWAP1 REVERT JUMPDEST POP PUSH1 0x40 MLOAD PUSH1 0x0 DUP1 SLOAD SWAP1 PUSH1 0x1 DUP3 DUP2 SHR SWAP1 DUP1 DUP5 AND SWAP4 DUP5 ISZERO PUSH2 0xC35 JUMPI JUMPDEST PUSH1 0x20 SWAP5 DUP6 DUP5 LT DUP2 EQ PUSH2 0xC21 JUMPI DUP4 DUP8 MSTORE DUP7 SWAP5 SWAP4 SWAP3 SWAP2 DUP2 ISZERO PUSH2 0xC01 JUMPI POP PUSH1 0x1 EQ PUSH2 0xBA5 JUMPI JUMPDEST POP POP PUSH2 0xBA2 SWAP3 POP SUB DUP3 PUSH2 0xAF7 JUMP JUMPDEST SWAP1 JUMP JUMPDEST PUSH1 0x0 DUP1 DUP1 MSTORE PUSH32 0x290DECD9548B62A8D60345A988386FC84BA6BC95484008F6362F93160EF3E563 SWAP6 SWAP4 POP SWAP2 SWAP1 JUMPDEST DUP2 DUP4 LT PUSH2 0xBE9 JUMPI POP POP PUSH2 0xBA2 SWAP4 POP DUP3 ADD ADD CODESIZE DUP1 PUSH2 0xB94 JUMP JUMPDEST DUP6 SLOAD DUP8 DUP5 ADD DUP6 ADD MSTORE SWAP5 DUP6 ADD SWAP5 DUP7 SWAP5 POP SWAP2 DUP4 ADD SWAP2 PUSH2 0xBD1 JUMP JUMPDEST SWAP2 POP POP PUSH2 0xBA2 SWAP5 SWAP3 POP PUSH1 0xFF NOT AND DUP3 DUP5 ADD MSTORE ISZERO ISZERO PUSH1 0x5 SHL DUP3 ADD ADD CODESIZE DUP1 PUSH2 0xB94 JUMP JUMPDEST PUSH4 0x4E487B71 PUSH1 0xE0 SHL DUP6 MSTORE PUSH1 0x22 PUSH1 0x4 MSTORE PUSH1 0x24 DUP6 REVERT JUMPDEST SWAP2 PUSH1 0x7F AND SWAP2 PUSH2 0xB71 JUMP JUMPDEST PUSH1 0xFF DUP2 EQ PUSH2 0xC61 JUMPI PUSH1 0xFF DUP2 AND SWAP1 PUSH1 0x1F DUP3 GT PUSH2 0xB45 JUMPI PUSH1 0x40 MLOAD SWAP2 PUSH2 0xB3B DUP4 PUSH2 0xAC5 JUMP JUMPDEST POP PUSH1 0x40 MLOAD PUSH1 0x0 PUSH1 0x1 SWAP1 DUP2 SLOAD SWAP2 DUP3 DUP2 SHR SWAP1 DUP1 DUP5 AND SWAP4 DUP5 ISZERO PUSH2 0xD08 JUMPI JUMPDEST PUSH1 0x20 SWAP5 DUP6 DUP5 LT DUP2 EQ PUSH2 0xC21 JUMPI DUP4 DUP8 MSTORE DUP7 SWAP5 SWAP4 SWAP3 SWAP2 DUP2 ISZERO PUSH2 0xC01 JUMPI POP PUSH1 0x1 EQ PUSH2 0xCAC JUMPI POP POP PUSH2 0xBA2 SWAP3 POP SUB DUP3 PUSH2 0xAF7 JUMP JUMPDEST PUSH1 0x0 DUP2 DUP2 MSTORE PUSH32 0xB10E2D527612073B26EECDFD717E6A320CF44B4AFAC2B0732D9FCBE2B7FA0CF6 SWAP6 SWAP4 POP SWAP2 SWAP1 JUMPDEST DUP2 DUP4 LT PUSH2 0xCF0 JUMPI POP POP PUSH2 0xBA2 SWAP4 POP DUP3 ADD ADD CODESIZE DUP1 PUSH2 0xB94 JUMP JUMPDEST DUP6 SLOAD DUP8 DUP5 ADD DUP6 ADD MSTORE SWAP5 DUP6 ADD SWAP5 DUP7 SWAP5 POP SWAP2 DUP4 ADD SWAP2 PUSH2 0xCD8 JUMP JUMPDEST SWAP2 PUSH1 0x7F AND SWAP2 PUSH2 0xC7C JUMP JUMPDEST PUSH8 0xFFFFFFFFFFFFFFFF DUP2 GT PUSH2 0xAE1 JUMPI PUSH1 0x1F ADD PUSH1 0x1F NOT AND PUSH1 0x20 ADD SWAP1 JUMP JUMPDEST SWAP2 SWAP1 DUP3 ADD DUP1 SWAP3 GT PUSH2 0xD3B JUMPI JUMP JUMPDEST PUSH4 0x4E487B71 PUSH1 0xE0 SHL PUSH1 0x0 MSTORE PUSH1 0x11 PUSH1 0x4 MSTORE PUSH1 0x24 PUSH1 0x0 REVERT JUMPDEST ISZERO PUSH2 0xD58 JUMPI JUMP JUMPDEST PUSH1 0x40 MLOAD PUSH3 0x461BCD PUSH1 0xE5 SHL DUP2 MSTORE PUSH1 0x20 PUSH1 0x4 DUP3 ADD MSTORE PUSH1 0xD PUSH1 0x24 DUP3 ADD MSTORE PUSH13 0x496E76616C6964206E6F6E6365 PUSH1 0x98 SHL PUSH1 0x44 DUP3 ADD MSTORE PUSH1 0x64 SWAP1 REVERT JUMPDEST PUSH32 0x9D77A72D248B83F2FAE439B26AF5306B3F0A82246B2EAED167DF5F2E60C088FD DUP2 MSTORE PUSH1 0x1 PUSH1 0x1 PUSH1 0xA0 SHL SUB SWAP2 DUP3 AND PUSH1 0x20 DUP3 ADD MSTORE SWAP2 DUP2 AND PUSH1 0x40 DUP4 ADD MSTORE PUSH1 0x60 DUP3 ADD SWAP3 SWAP1 SWAP3 MSTORE SWAP2 AND PUSH1 0x80 DUP3 ADD MSTORE PUSH1 0xA0 DUP2 ADD SWAP2 SWAP1 SWAP2 MSTORE PUSH1 0xC0 DUP2 ADD SWAP2 SWAP1 SWAP2 MSTORE PUSH1 0xE0 ADD SWAP1 JUMP JUMPDEST SWAP3 SWAP2 SWAP3 PUSH2 0xDF9 DUP3 PUSH2 0xD12 JUMP JUMPDEST SWAP2 PUSH2 0xE07 PUSH1 0x40 MLOAD SWAP4 DUP5 PUSH2 0xAF7 JUMP JUMPDEST DUP3 SWAP5 DUP2 DUP5 MSTORE DUP2 DUP4 ADD GT PUSH2 0xA26 JUMPI DUP3 DUP2 PUSH1 0x20 SWAP4 DUP5 PUSH1 0x0 SWAP7 ADD CALLDATACOPY ADD ADD MSTORE JUMP JUMPDEST ISZERO PUSH2 0xE2B JUMPI JUMP JUMPDEST PUSH1 0x40 MLOAD PUSH3 0x461BCD PUSH1 0xE5 SHL DUP2 MSTORE PUSH1 0x20 PUSH1 0x4 DUP3 ADD MSTORE PUSH1 0x11 PUSH1 0x24 DUP3 ADD MSTORE PUSH17 0x496E76616C6964207369676E6174757265 PUSH1 0x78 SHL PUSH1 0x44 DUP3 ADD MSTORE PUSH1 0x64 SWAP1 REVERT JUMPDEST PUSH1 0x0 NOT DUP2 EQ PUSH2 0xD3B JUMPI PUSH1 0x1 ADD SWAP1 JUMP JUMPDEST SWAP2 SWAP1 DUP3 SUB SWAP2 DUP3 GT PUSH2 0xD3B JUMPI JUMP JUMPDEST RETURNDATASIZE ISZERO PUSH2 0xEAB JUMPI RETURNDATASIZE SWAP1 PUSH2 0xE91 DUP3 PUSH2 0xD12 JUMP JUMPDEST SWAP2 PUSH2 0xE9F PUSH1 0x40 MLOAD SWAP4 DUP5 PUSH2 0xAF7 JUMP JUMPDEST DUP3 MSTORE RETURNDATASIZE PUSH1 0x0 PUSH1 0x20 DUP5 ADD RETURNDATACOPY JUMP JUMPDEST PUSH1 0x60 SWAP1 JUMP JUMPDEST PUSH1 0x40 MLOAD PUSH4 0x23B872DD PUSH1 0xE0 SHL PUSH1 0x20 DUP3 ADD SWAP1 DUP2 MSTORE PUSH1 0x1 PUSH1 0x1 PUSH1 0xA0 SHL SUB SWAP4 DUP5 AND PUSH1 0x24 DUP4 ADD MSTORE SWAP4 DUP4 AND PUSH1 0x44 DUP3 ADD MSTORE PUSH1 0x64 DUP1 DUP3 ADD SWAP6 SWAP1 SWAP6 MSTORE SWAP4 DUP5 MSTORE SWAP3 SWAP1 SWAP2 PUSH1 0xA0 DUP3 ADD SWAP1 PUSH8 0xFFFFFFFFFFFFFFFF DUP3 GT DUP4 DUP4 LT OR PUSH2 0xAE1 JUMPI PUSH1 0x20 SWAP3 PUSH1 0x0 SWAP3 PUSH1 0x40 MSTORE MLOAD SWAP1 DUP3 DUP7 GAS CALL ISZERO PUSH2 0xF4F JUMPI PUSH1 0x0 MLOAD RETURNDATASIZE PUSH2 0xF46 JUMPI POP DUP1 DUP3 AND EXTCODESIZE ISZERO JUMPDEST PUSH2 0xF2C JUMPI POP POP JUMP JUMPDEST PUSH1 0x40 MLOAD PUSH4 0x5274AFE7 PUSH1 0xE0 SHL DUP2 MSTORE SWAP2 AND PUSH1 0x4 DUP3 ADD MSTORE PUSH1 0x24 SWAP2 POP REVERT JUMPDEST PUSH1 0x1 EQ ISZERO PUSH2 0xF24 JUMP JUMPDEST PUSH1 0x40 MLOAD RETURNDATASIZE PUSH1 0x0 DUP3 RETURNDATACOPY RETURNDATASIZE SWAP1 REVERT JUMPDEST DUP2 MLOAD SWAP2 SWAP1 PUSH1 0x41 DUP4 SUB PUSH2 0xF8C JUMPI PUSH2 0xF85 SWAP3 POP PUSH1 0x20 DUP3 ADD MLOAD SWAP1 PUSH1 0x60 PUSH1 0x40 DUP5 ADD MLOAD SWAP4 ADD MLOAD PUSH1 0x0 BYTE SWAP1 PUSH2 0xF97 JUMP JUMPDEST SWAP2 SWAP3 SWAP1 SWAP2 SWAP1 JUMP JUMPDEST POP POP PUSH1 0x0 SWAP2 PUSH1 0x2 SWAP2 SWAP1 JUMP JUMPDEST SWAP2 SWAP1 PUSH32 0x7FFFFFFFFFFFFFFFFFFFFFFFFFFFFFFF5D576E7357A4501DDFE92F46681B20A0 DUP5 GT PUSH2 0x101B JUMPI SWAP3 PUSH1 0x20 SWAP3 SWAP2 PUSH1 0xFF PUSH1 0x80 SWAP6 PUSH1 0x40 MLOAD SWAP5 DUP6 MSTORE AND DUP5 DUP5 ADD MSTORE PUSH1 0x40 DUP4 ADD MSTORE PUSH1 0x60 DUP3 ADD MSTORE PUSH1 0x0 SWAP3 DUP4 SWAP2 DUP3 DUP1 MSTORE PUSH1 0x1 GAS STATICCALL ISZERO PUSH2 0x100F JUMPI DUP1 MLOAD PUSH1 0x1 PUSH1 0x1 PUSH1 0xA0 SHL SUB DUP2 AND ISZERO PUSH2 0x1006 JUMPI SWAP2 DUP2 SWAP1 JUMP JUMPDEST POP DUP1 SWAP2 PUSH1 0x1 SWAP2 SWAP1 JUMP JUMPDEST PUSH1 0x40 MLOAD SWAP1 RETURNDATASIZE SWAP1 DUP3 RETURNDATACOPY RETURNDATASIZE SWAP1 REVERT JUMPDEST POP POP POP PUSH1 0x0 SWAP2 PUSH1 0x3 SWAP2 SWAP1 JUMP JUMPDEST PUSH1 0x4 DUP2 LT ISZERO PUSH2 0x1096 JUMPI DUP1 PUSH2 0x1039 JUMPI POP POP JUMP JUMPDEST PUSH1 0x1 DUP2 SUB PUSH2 0x1053 JUMPI PUSH1 0x40 MLOAD PUSH4 0xF645EEDF PUSH1 0xE0 SHL DUP2 MSTORE PUSH1 0x4 SWAP1 REVERT JUMPDEST PUSH1 0x2 DUP2 SUB PUSH2 0x1074 JUMPI PUSH1 0x40 MLOAD PUSH4 0xFCE698F7 PUSH1 0xE0 SHL DUP2 MSTORE PUSH1 0x4 DUP2 ADD DUP4 SWAP1 MSTORE PUSH1 0x24 SWAP1 REVERT JUMPDEST PUSH1 0x3 EQ PUSH2 0x107E JUMPI POP JUMP JUMPDEST PUSH1 0x24 SWAP1 PUSH1 0x40 MLOAD SWAP1 PUSH4 0x35E2F383 PUSH1 0xE2 SHL DUP3 MSTORE PUSH1 0x4 DUP3 ADD MSTORE REVERT JUMPDEST PUSH4 0x4E487B71 PUSH1 0xE0 SHL PUSH1 0x0 MSTORE PUSH1 0x21 PUSH1 0x4 MSTORE PUSH1 0x24 PUSH1 0x0 REVERT JUMPDEST PUSH1 0x42 SWAP1 PUSH2 0x10B7 PUSH2 0x10D2 JUMP JUMPDEST SWAP1 PUSH1 0x40 MLOAD SWAP2 PUSH2 0x1901 PUSH1 0xF0 SHL DUP4 MSTORE PUSH1 0x2 DUP4 ADD MSTORE PUSH1 0x22 DUP3 ADD MSTORE KECCAK256 SWAP1 JUMP JUMPDEST ADDRESS PUSH32 0x0 PUSH1 0x1 PUSH1 0x1 PUSH1 0xA0 SHL SUB AND EQ DUP1 PUSH2 0x11D4 JUMPI JUMPDEST ISZERO PUSH2 0x112D JUMPI PUSH32 0x0 SWAP1 JUMP JUMPDEST PUSH1 0x40 MLOAD PUSH1 0x20 DUP2 ADD SWAP1 PUSH32 0x8B73C3C69BB8FE3D512ECC4CF759CC79239F7B179B0FFACAA9A75D522B39400F DUP3 MSTORE PUSH32 0x0 PUSH1 0x40 DUP3 ADD MSTORE PUSH32 0x0 PUSH1 0x60 DUP3 ADD MSTORE CHAINID PUSH1 0x80 DUP3 ADD MSTORE ADDRESS PUSH1 0xA0 DUP3 ADD MSTORE PUSH1 0xA0 DUP2 MSTORE PUSH1 0xC0 DUP2 ADD DUP2 DUP2 LT PUSH8 0xFFFFFFFFFFFFFFFF DUP3 GT OR PUSH2 0xAE1 JUMPI PUSH1 0x40 MSTORE MLOAD SWAP1 KECCAK256 SWAP1 JUMP JUMPDEST POP PUSH32 0x0 CHAINID EQ PUSH2 0x1104 JUMP INVALID LOG2 PUSH5 0x6970667358 0x22 SLT KECCAK256 CREATE LOG4 ORIGIN 0xF7 0xEB PUSH32 0x3AB157AF772771B7924EB3163A1900BBBE3B06DB16CD2D8B006664736F6C6343 STOP ADDMOD EQ STOP CALLER "},"methodIdentifiers":{"admin()":"f851a440","depositNative()":"db6b5246","eip712Domain()":"84b0196e","executeSponsoredTransfer(address,address,uint256,address,uint256,uint256,bytes)":"d7ad6f32","executeSponsoredTransferWithPermit(address,address,uint256,address,uint256,uint256,bytes,uint256,uint8,bytes32,bytes32)":"5b97e3c4","getNativeDepositPool()":"bd823c97","nativeDepositPool()":"463a5ded","nonces(address)":"7ecebe00","withdrawNative(uint256)":"84276d81"}}}}}