{
  "_format": "hh-sol-artifact-1",
  "contractName": "AdSponsorPaymaster",
  "sourceName": "contracts/AdSponsorPaymaster.sol",
  "abi": [
    {
      "inputs": [
        {
          "internalType": "address",
          "name": "_entryPoint",
          "type": "address"
        }
      ],
      "stateMutability": "nonpayable",
      "type": "constructor"
    },
    {
      "inputs": [],
      "name": "EnforcedPause",
      "type": "error"
    },
    {
      "inputs": [],
      "name": "ExpectedPause",
      "type": "error"
    },
    {
      "inputs": [
        {
          "internalType": "address",
          "name": "owner",
          "type": "address"
        }
      ],
      "name": "OwnableInvalidOwner",
      "type": "error"
    },
    {
      "inputs": [
        {
          "internalType": "address",
          "name": "account",
          "type": "address"
        }
      ],
      "name": "OwnableUnauthorizedAccount",
      "type": "error"
    },
    {
      "inputs": [],
      "name": "ReentrancyGuardReentrantCall",
      "type": "error"
    },
    {
      "anonymous": false,
      "inputs": [
        {
          "indexed": false,
          "internalType": "uint256",
          "name": "oldVal",
          "type": "uint256"
        },
        {
          "indexed": false,
          "internalType": "uint256",
          "name": "newVal",
          "type": "uint256"
        }
      ],
      "name": "DailyGasLimitUpdated",
      "type": "event"
    },
    {
      "anonymous": false,
      "inputs": [
        {
          "indexed": true,
          "internalType": "address",
          "name": "from",
          "type": "address"
        },
        {
          "indexed": false,
          "internalType": "uint256",
          "name": "amount",
          "type": "uint256"
        }
      ],
      "name": "Deposited",
      "type": "event"
    },
    {
      "anonymous": false,
      "inputs": [
        {
          "indexed": false,
          "internalType": "uint256",
          "name": "oldVal",
          "type": "uint256"
        },
        {
          "indexed": false,
          "internalType": "uint256",
          "name": "newVal",
          "type": "uint256"
        }
      ],
      "name": "MaxCostPerUserOpUpdated",
      "type": "event"
    },
    {
      "anonymous": false,
      "inputs": [
        {
          "indexed": true,
          "internalType": "address",
          "name": "previousOwner",
          "type": "address"
        },
        {
          "indexed": true,
          "internalType": "address",
          "name": "newOwner",
          "type": "address"
        }
      ],
      "name": "OwnershipTransferred",
      "type": "event"
    },
    {
      "anonymous": false,
      "inputs": [
        {
          "indexed": false,
          "internalType": "address",
          "name": "account",
          "type": "address"
        }
      ],
      "name": "Paused",
      "type": "event"
    },
    {
      "anonymous": false,
      "inputs": [
        {
          "indexed": false,
          "internalType": "address",
          "name": "account",
          "type": "address"
        }
      ],
      "name": "Unpaused",
      "type": "event"
    },
    {
      "anonymous": false,
      "inputs": [
        {
          "indexed": false,
          "internalType": "bool",
          "name": "enabled",
          "type": "bool"
        }
      ],
      "name": "WhitelistEnabledUpdated",
      "type": "event"
    },
    {
      "anonymous": false,
      "inputs": [
        {
          "indexed": true,
          "internalType": "address",
          "name": "account",
          "type": "address"
        },
        {
          "indexed": false,
          "internalType": "bool",
          "name": "allowed",
          "type": "bool"
        }
      ],
      "name": "WhitelistUpdated",
      "type": "event"
    },
    {
      "anonymous": false,
      "inputs": [
        {
          "indexed": true,
          "internalType": "address",
          "name": "to",
          "type": "address"
        },
        {
          "indexed": false,
          "internalType": "uint256",
          "name": "amount",
          "type": "uint256"
        }
      ],
      "name": "Withdrawn",
      "type": "event"
    },
    {
      "inputs": [
        {
          "internalType": "uint32",
          "name": "unstakeDelaySec",
          "type": "uint32"
        }
      ],
      "name": "addStake",
      "outputs": [],
      "stateMutability": "payable",
      "type": "function"
    },
    {
      "inputs": [],
      "name": "dailyGasLimit",
      "outputs": [
        {
          "internalType": "uint256",
          "name": "",
          "type": "uint256"
        }
      ],
      "stateMutability": "view",
      "type": "function"
    },
    {
      "inputs": [],
      "name": "dailyGasUsed",
      "outputs": [
        {
          "internalType": "uint256",
          "name": "",
          "type": "uint256"
        }
      ],
      "stateMutability": "view",
      "type": "function"
    },
    {
      "inputs": [],
      "name": "deposit",
      "outputs": [],
      "stateMutability": "payable",
      "type": "function"
    },
    {
      "inputs": [],
      "name": "entryPoint",
      "outputs": [
        {
          "internalType": "contract IEntryPoint",
          "name": "",
          "type": "address"
        }
      ],
      "stateMutability": "view",
      "type": "function"
    },
    {
      "inputs": [],
      "name": "getDeposit",
      "outputs": [
        {
          "internalType": "uint256",
          "name": "",
          "type": "uint256"
        }
      ],
      "stateMutability": "view",
      "type": "function"
    },
    {
      "inputs": [],
      "name": "lastResetDay",
      "outputs": [
        {
          "internalType": "uint256",
          "name": "",
          "type": "uint256"
        }
      ],
      "stateMutability": "view",
      "type": "function"
    },
    {
      "inputs": [],
      "name": "maxCostPerUserOp",
      "outputs": [
        {
          "internalType": "uint256",
          "name": "",
          "type": "uint256"
        }
      ],
      "stateMutability": "view",
      "type": "function"
    },
    {
      "inputs": [],
      "name": "owner",
      "outputs": [
        {
          "internalType": "address",
          "name": "",
          "type": "address"
        }
      ],
      "stateMutability": "view",
      "type": "function"
    },
    {
      "inputs": [],
      "name": "pause",
      "outputs": [],
      "stateMutability": "nonpayable",
      "type": "function"
    },
    {
      "inputs": [],
      "name": "paused",
      "outputs": [
        {
          "internalType": "bool",
          "name": "",
          "type": "bool"
        }
      ],
      "stateMutability": "view",
      "type": "function"
    },
    {
      "inputs": [
        {
          "internalType": "enum AdSponsorPaymaster.PostOpMode",
          "name": "mode",
          "type": "uint8"
        },
        {
          "internalType": "bytes",
          "name": "context",
          "type": "bytes"
        },
        {
          "internalType": "uint256",
          "name": "actualGasCost",
          "type": "uint256"
        }
      ],
      "name": "postOp",
      "outputs": [],
      "stateMutability": "nonpayable",
      "type": "function"
    },
    {
      "inputs": [],
      "name": "renounceOwnership",
      "outputs": [],
      "stateMutability": "nonpayable",
      "type": "function"
    },
    {
      "inputs": [
        {
          "internalType": "uint256",
          "name": "_dailyGasLimit",
          "type": "uint256"
        }
      ],
      "name": "setDailyGasLimit",
      "outputs": [],
      "stateMutability": "nonpayable",
      "type": "function"
    },
    {
      "inputs": [
        {
          "internalType": "uint256",
          "name": "_maxCostPerUserOp",
          "type": "uint256"
        }
      ],
      "name": "setMaxCostPerUserOp",
      "outputs": [],
      "stateMutability": "nonpayable",
      "type": "function"
    },
    {
      "inputs": [
        {
          "internalType": "address",
          "name": "account",
          "type": "address"
        },
        {
          "internalType": "bool",
          "name": "allowed",
          "type": "bool"
        }
      ],
      "name": "setWhitelist",
      "outputs": [],
      "stateMutability": "nonpayable",
      "type": "function"
    },
    {
      "inputs": [
        {
          "internalType": "address[]",
          "name": "accounts",
          "type": "address[]"
        },
        {
          "internalType": "bool",
          "name": "allowed",
          "type": "bool"
        }
      ],
      "name": "setWhitelistBatch",
      "outputs": [],
      "stateMutability": "nonpayable",
      "type": "function"
    },
    {
      "inputs": [
        {
          "internalType": "bool",
          "name": "_enabled",
          "type": "bool"
        }
      ],
      "name": "setWhitelistEnabled",
      "outputs": [],
      "stateMutability": "nonpayable",
      "type": "function"
    },
    {
      "inputs": [
        {
          "internalType": "address",
          "name": "newOwner",
          "type": "address"
        }
      ],
      "name": "transferOwnership",
      "outputs": [],
      "stateMutability": "nonpayable",
      "type": "function"
    },
    {
      "inputs": [],
      "name": "unlockStake",
      "outputs": [],
      "stateMutability": "nonpayable",
      "type": "function"
    },
    {
      "inputs": [],
      "name": "unpause",
      "outputs": [],
      "stateMutability": "nonpayable",
      "type": "function"
    },
    {
      "inputs": [
        {
          "components": [
            {
              "internalType": "address",
              "name": "sender",
              "type": "address"
            },
            {
              "internalType": "uint256",
              "name": "nonce",
              "type": "uint256"
            },
            {
              "internalType": "bytes",
              "name": "initCode",
              "type": "bytes"
            },
            {
              "internalType": "bytes",
              "name": "callData",
              "type": "bytes"
            },
            {
              "internalType": "uint256",
              "name": "callGasLimit",
              "type": "uint256"
            },
            {
              "internalType": "uint256",
              "name": "verificationGasLimit",
              "type": "uint256"
            },
            {
              "internalType": "uint256",
              "name": "preVerificationGas",
              "type": "uint256"
            },
            {
              "internalType": "uint256",
              "name": "maxFeePerGas",
              "type": "uint256"
            },
            {
              "internalType": "uint256",
              "name": "maxPriorityFeePerGas",
              "type": "uint256"
            },
            {
              "internalType": "bytes",
              "name": "paymasterAndData",
              "type": "bytes"
            },
            {
              "internalType": "bytes",
              "name": "signature",
              "type": "bytes"
            }
          ],
          "internalType": "struct AdSponsorPaymaster.UserOperation",
          "name": "userOp",
          "type": "tuple"
        },
        {
          "internalType": "bytes32",
          "name": "",
          "type": "bytes32"
        },
        {
          "internalType": "uint256",
          "name": "maxCost",
          "type": "uint256"
        }
      ],
      "name": "validatePaymasterUserOp",
      "outputs": [
        {
          "internalType": "bytes",
          "name": "context",
          "type": "bytes"
        },
        {
          "internalType": "uint256",
          "name": "validationData",
          "type": "uint256"
        }
      ],
      "stateMutability": "view",
      "type": "function"
    },
    {
      "inputs": [
        {
          "internalType": "address",
          "name": "",
          "type": "address"
        }
      ],
      "name": "whitelist",
      "outputs": [
        {
          "internalType": "bool",
          "name": "",
          "type": "bool"
        }
      ],
      "stateMutability": "view",
      "type": "function"
    },
    {
      "inputs": [],
      "name": "whitelistEnabled",
      "outputs": [
        {
          "internalType": "bool",
          "name": "",
          "type": "bool"
        }
      ],
      "stateMutability": "view",
      "type": "function"
    },
    {
      "inputs": [
        {
          "internalType": "address payable",
          "name": "to",
          "type": "address"
        }
      ],
      "name": "withdrawStake",
      "outputs": [],
      "stateMutability": "nonpayable",
      "type": "function"
    },
    {
      "inputs": [
        {
          "internalType": "address payable",
          "name": "to",
          "type": "address"
        },
        {
          "internalType": "uint256",
          "name": "amount",
          "type": "uint256"
        }
      ],
      "name": "withdrawTo",
      "outputs": [],
      "stateMutability": "nonpayable",
      "type": "function"
    },
    {
      "stateMutability": "payable",
      "type": "receive"
    }
  ],
  "bytecode": "0x60a060405267016345785d8a000060035534801561001c57600080fd5b5060405161146738038061146783398101604081905261003b916100d0565b338061006157604051631e4fbdf760e01b81526000600482015260240160405180910390fd5b61006a81610080565b50600180556001600160a01b0316608052610100565b600080546001600160a01b038381166001600160a01b0319831681178455604051919092169283917f8be0079c531659141344cd1fd0a4f28419497f9722a3daafe3b4186f6b6457e09190a35050565b6000602082840312156100e257600080fd5b81516001600160a01b03811681146100f957600080fd5b9392505050565b60805161131b61014c60003960008181610405015281816104ff0152818161063b015281816108c5015281816109c401528181610a5801528181610acf0152610b64015261131b6000f3fe6080604052600436106101855760003560e01c80638456cb59116100d1578063bb9fe6bf1161008a578063d0e30db011610064578063d0e30db014610471578063ec4e405f14610479578063f2fde38b1461048f578063f465c77e146104af57600080fd5b8063bb9fe6bf14610427578063c23a5cea1461043c578063c399ec881461045c57600080fd5b80638456cb591461033c5780638da5cb5b146103515780639b19251a14610383578063a58da0be146103b3578063a9a23409146103d3578063b0d691fe146103f357600080fd5b80633f4ba83a1161013e57806352dd9e1e1161011857806352dd9e1e146102d957806353d6fd59146102ef5780635c975abb1461030f578063715018a61461032757600080fd5b80633f4ba83a146102845780634f698e121461029957806351fb012d146102af57600080fd5b80630396cb60146101c6578063052d9e7e146101db5780631259a5c8146101fb5780631461205314610224578063205c287814610244578063298141f91461026457600080fd5b366101c15760405134815233907f2da466a7b24304f47e87fa2e1e5a81b9831ce54fec19055ce277ca2f39ba42c49060200160405180910390a2005b600080fd5b6101d96101d4366004610f71565b6104dd565b005b3480156101e757600080fd5b506101d96101f6366004610fb3565b610568565b34801561020757600080fd5b5061021160065481565b6040519081526020015b60405180910390f35b34801561023057600080fd5b506101d961023f366004610fce565b6105b7565b34801561025057600080fd5b506101d961025f366004610ffc565b610605565b34801561027057600080fd5b506101d961027f366004610fce565b6106e7565b34801561029057600080fd5b506101d961072d565b3480156102a557600080fd5b5061021160045481565b3480156102bb57600080fd5b506007546102c99060ff1681565b604051901515815260200161021b565b3480156102e557600080fd5b5061021160035481565b3480156102fb57600080fd5b506101d961030a366004611028565b61073f565b34801561031b57600080fd5b5060025460ff166102c9565b34801561033357600080fd5b506101d96107a6565b34801561034857600080fd5b506101d96107b8565b34801561035d57600080fd5b506000546001600160a01b03165b6040516001600160a01b03909116815260200161021b565b34801561038f57600080fd5b506102c961039e36600461105d565b60086020526000908152604090205460ff1681565b3480156103bf57600080fd5b506101d96103ce36600461107a565b6107c8565b3480156103df57600080fd5b506101d96103ee3660046110fe565b6108b2565b3480156103ff57600080fd5b5061036b7f000000000000000000000000000000000000000000000000000000000000000081565b34801561043357600080fd5b506101d96109ba565b34801561044857600080fd5b506101d961045736600461105d565b610a31565b34801561046857600080fd5b50610211610ab7565b6101d9610b47565b34801561048557600080fd5b5061021160055481565b34801561049b57600080fd5b506101d96104aa36600461105d565b610c02565b3480156104bb57600080fd5b506104cf6104ca36600461118d565b610c40565b60405161021b9291906111e1565b6104e5610dbc565b604051621cb65b60e51b815263ffffffff821660048201527f00000000000000000000000000000000000000000000000000000000000000006001600160a01b031690630396cb609034906024016000604051808303818588803b15801561054c57600080fd5b505af1158015610560573d6000803e3d6000fd5b505050505050565b610570610dbc565b6007805460ff19168215159081179091556040519081527f49d3057180a80162d2a0381be6848c15e0d117e900366482dd3b5443ca8db9749060200160405180910390a150565b6105bf610dbc565b600380549082905560408051828152602081018490527f6f97f69819f39e54d5b710ae92b6f445ed86a56255acef7c0f80e92155664e0f91015b60405180910390a15050565b61060d610dbc565b610615610de9565b60405163040b850f60e31b81526001600160a01b038381166004830152602482018390527f0000000000000000000000000000000000000000000000000000000000000000169063205c287890604401600060405180830381600087803b15801561067f57600080fd5b505af1158015610693573d6000803e3d6000fd5b50505050816001600160a01b03167f7084f5476618d8e60b11ef0d7d3f06914655adb8793e28ff7f018d4c76d505d5826040516106d291815260200190565b60405180910390a26106e360018055565b5050565b6106ef610dbc565b600480549082905560408051828152602081018490527f718e1debbe390c12c79cd2be0ff2c4db6d4abb369948de8cb3624cb7e24f9b1a91016105f9565b610735610dbc565b61073d610e13565b565b610747610dbc565b6001600160a01b038216600081815260086020908152604091829020805460ff191685151590811790915591519182527ff93f9a76c1bf3444d22400a00cb9fe990e6abe9dbb333fda48859cfee864543d910160405180910390a25050565b6107ae610dbc565b61073d6000610e65565b6107c0610dbc565b61073d610eb5565b6107d0610dbc565b60005b828110156108ac5781600860008686858181106107f2576107f2611236565b9050602002016020810190610807919061105d565b6001600160a01b031681526020810191909152604001600020805460ff191691151591909117905583838281811061084157610841611236565b9050602002016020810190610856919061105d565b6001600160a01b03167ff93f9a76c1bf3444d22400a00cb9fe990e6abe9dbb333fda48859cfee864543d83604051610892911515815260200190565b60405180910390a2806108a481611262565b9150506107d3565b50505050565b6108ba610de9565b336001600160a01b037f000000000000000000000000000000000000000000000000000000000000000016146109435760405162461bcd60e51b815260206004820152602360248201527f416453706f6e736f725061796d61737465723a206f6e6c7920456e747279506f6044820152621a5b9d60ea1b60648201526084015b60405180910390fd5b60008061095284860186610ffc565b9092509050600186600281111561096b5761096b61127b565b146109af57600061097f6201518042611291565b905060065481111561099657600681905560006005555b83600560008282546109a891906112b3565b9091555050505b50506108ac60018055565b6109c2610dbc565b7f00000000000000000000000000000000000000000000000000000000000000006001600160a01b031663bb9fe6bf6040518163ffffffff1660e01b8152600401600060405180830381600087803b158015610a1d57600080fd5b505af11580156108ac573d6000803e3d6000fd5b610a39610dbc565b60405163611d2e7560e11b81526001600160a01b0382811660048301527f0000000000000000000000000000000000000000000000000000000000000000169063c23a5cea90602401600060405180830381600087803b158015610a9c57600080fd5b505af1158015610ab0573d6000803e3d6000fd5b5050505050565b6040516370a0823160e01b81523060048201526000907f00000000000000000000000000000000000000000000000000000000000000006001600160a01b0316906370a0823190602401602060405180830381865afa158015610b1e573d6000803e3d6000fd5b505050506040513d601f19601f82011682018060405250810190610b4291906112cc565b905090565b610b4f610dbc565b60405163b760faf960e01b81523060048201527f00000000000000000000000000000000000000000000000000000000000000006001600160a01b03169063b760faf99034906024016000604051808303818588803b158015610bb157600080fd5b505af1158015610bc5573d6000803e3d6000fd5b50506040513481523393507f2da466a7b24304f47e87fa2e1e5a81b9831ce54fec19055ce277ca2f39ba42c49250602001905060405180910390a2565b610c0a610dbc565b6001600160a01b038116610c3457604051631e4fbdf760e01b81526000600482015260240161093a565b610c3d81610e65565b50565b60606000610c5060025460ff1690565b15610c9d5760405162461bcd60e51b815260206004820152601a60248201527f416453706f6e736f725061796d61737465723a20706175736564000000000000604482015260640161093a565b60075460ff168015610cda575060086000610cbb602088018861105d565b6001600160a01b0316815260208101919091526040016000205460ff16155b15610d0457610cec6001600080610ef2565b60408051602081019091526000815292509050610db4565b600354831115610d1b57610cec6001600080610ef2565b60045415610d75576000610d326201518042611291565b905060045484600554610d4591906112b3565b1115610d7357610d586001600080610ef2565b60405180602001604052806000815250909250925050610db4565b505b610d82602086018661105d565b604080516001600160a01b03909216602083015281018490526060016040516020818303038152906040529150600090505b935093915050565b6000546001600160a01b0316331461073d5760405163118cdaa760e01b815233600482015260240161093a565b600260015403610e0c57604051633ee5aeb560e01b815260040160405180910390fd5b6002600155565b610e1b610f2a565b6002805460ff191690557f5db9ee0a495bf2e6ff9c91a7834c1ba4fdd244a5e8aa4e537bd38aeae4b073aa335b6040516001600160a01b03909116815260200160405180910390a1565b600080546001600160a01b038381166001600160a01b0319831681178455604051919092169283917f8be0079c531659141344cd1fd0a4f28419497f9722a3daafe3b4186f6b6457e09190a35050565b610ebd610f4d565b6002805460ff191660011790557f62e78cea01bee320cd4e420270b5ea74000d11b0c9f74754ebdbfc544b05a258610e483390565b600060d08265ffffffffffff16901b60a08465ffffffffffff16901b85610f1a576000610f1d565b60015b60ff161717949350505050565b60025460ff1661073d57604051638dfc202b60e01b815260040160405180910390fd5b60025460ff161561073d5760405163d93c066560e01b815260040160405180910390fd5b600060208284031215610f8357600080fd5b813563ffffffff81168114610f9757600080fd5b9392505050565b80358015158114610fae57600080fd5b919050565b600060208284031215610fc557600080fd5b610f9782610f9e565b600060208284031215610fe057600080fd5b5035919050565b6001600160a01b0381168114610c3d57600080fd5b6000806040838503121561100f57600080fd5b823561101a81610fe7565b946020939093013593505050565b6000806040838503121561103b57600080fd5b823561104681610fe7565b915061105460208401610f9e565b90509250929050565b60006020828403121561106f57600080fd5b8135610f9781610fe7565b60008060006040848603121561108f57600080fd5b833567ffffffffffffffff808211156110a757600080fd5b818601915086601f8301126110bb57600080fd5b8135818111156110ca57600080fd5b8760208260051b85010111156110df57600080fd5b6020928301955093506110f59186019050610f9e565b90509250925092565b6000806000806060858703121561111457600080fd5b84356003811061112357600080fd5b9350602085013567ffffffffffffffff8082111561114057600080fd5b818701915087601f83011261115457600080fd5b81358181111561116357600080fd5b88602082850101111561117557600080fd5b95986020929092019750949560400135945092505050565b6000806000606084860312156111a257600080fd5b833567ffffffffffffffff8111156111b957600080fd5b840161016081870312156111cc57600080fd5b95602085013595506040909401359392505050565b604081526000835180604084015260005b8181101561120f57602081870181015160608684010152016111f2565b506000606082850101526060601f19601f8301168401019150508260208301529392505050565b634e487b7160e01b600052603260045260246000fd5b634e487b7160e01b600052601160045260246000fd5b6000600182016112745761127461124c565b5060010190565b634e487b7160e01b600052602160045260246000fd5b6000826112ae57634e487b7160e01b600052601260045260246000fd5b500490565b808201808211156112c6576112c661124c565b92915050565b6000602082840312156112de57600080fd5b505191905056fea2646970667358221220029b4c1e477b20490dc12d254578802e59cd6841b89e550f2fc173ff4c814bb164736f6c63430008140033",
  "linkReferences": {},
  "deployedLinkReferences": {}
}