{
  "_format": "hh-sol-artifact-1",
  "contractName": "AdWalletSponsoredTransfer",
  "sourceName": "contracts/AdWalletSponsoredTransfer.sol",
  "abi": [
    {
      "inputs": [
        {
          "internalType": "address",
          "name": "_admin",
          "type": "address"
        }
      ],
      "stateMutability": "nonpayable",
      "type": "constructor"
    },
    {
      "inputs": [],
      "name": "ECDSAInvalidSignature",
      "type": "error"
    },
    {
      "inputs": [
        {
          "internalType": "uint256",
          "name": "length",
          "type": "uint256"
        }
      ],
      "name": "ECDSAInvalidSignatureLength",
      "type": "error"
    },
    {
      "inputs": [
        {
          "internalType": "bytes32",
          "name": "s",
          "type": "bytes32"
        }
      ],
      "name": "ECDSAInvalidSignatureS",
      "type": "error"
    },
    {
      "inputs": [],
      "name": "InvalidShortString",
      "type": "error"
    },
    {
      "inputs": [
        {
          "internalType": "address",
          "name": "token",
          "type": "address"
        }
      ],
      "name": "SafeERC20FailedOperation",
      "type": "error"
    },
    {
      "inputs": [
        {
          "internalType": "string",
          "name": "str",
          "type": "string"
        }
      ],
      "name": "StringTooLong",
      "type": "error"
    },
    {
      "anonymous": false,
      "inputs": [],
      "name": "EIP712DomainChanged",
      "type": "event"
    },
    {
      "anonymous": false,
      "inputs": [
        {
          "indexed": true,
          "internalType": "address",
          "name": "admin",
          "type": "address"
        },
        {
          "indexed": false,
          "internalType": "uint256",
          "name": "amount",
          "type": "uint256"
        }
      ],
      "name": "NativeDeposited",
      "type": "event"
    },
    {
      "anonymous": false,
      "inputs": [
        {
          "indexed": true,
          "internalType": "address",
          "name": "from",
          "type": "address"
        },
        {
          "indexed": true,
          "internalType": "address",
          "name": "to",
          "type": "address"
        },
        {
          "indexed": false,
          "internalType": "uint256",
          "name": "amount",
          "type": "uint256"
        },
        {
          "indexed": false,
          "internalType": "address",
          "name": "token",
          "type": "address"
        },
        {
          "indexed": false,
          "internalType": "uint256",
          "name": "nonce",
          "type": "uint256"
        }
      ],
      "name": "SponsoredTransfer",
      "type": "event"
    },
    {
      "inputs": [],
      "name": "admin",
      "outputs": [
        {
          "internalType": "address",
          "name": "",
          "type": "address"
        }
      ],
      "stateMutability": "view",
      "type": "function"
    },
    {
      "inputs": [],
      "name": "depositNative",
      "outputs": [],
      "stateMutability": "payable",
      "type": "function"
    },
    {
      "inputs": [],
      "name": "eip712Domain",
      "outputs": [
        {
          "internalType": "bytes1",
          "name": "fields",
          "type": "bytes1"
        },
        {
          "internalType": "string",
          "name": "name",
          "type": "string"
        },
        {
          "internalType": "string",
          "name": "version",
          "type": "string"
        },
        {
          "internalType": "uint256",
          "name": "chainId",
          "type": "uint256"
        },
        {
          "internalType": "address",
          "name": "verifyingContract",
          "type": "address"
        },
        {
          "internalType": "bytes32",
          "name": "salt",
          "type": "bytes32"
        },
        {
          "internalType": "uint256[]",
          "name": "extensions",
          "type": "uint256[]"
        }
      ],
      "stateMutability": "view",
      "type": "function"
    },
    {
      "inputs": [
        {
          "internalType": "address",
          "name": "from",
          "type": "address"
        },
        {
          "internalType": "address",
          "name": "to",
          "type": "address"
        },
        {
          "internalType": "uint256",
          "name": "amount",
          "type": "uint256"
        },
        {
          "internalType": "address",
          "name": "token",
          "type": "address"
        },
        {
          "internalType": "uint256",
          "name": "chainId",
          "type": "uint256"
        },
        {
          "internalType": "uint256",
          "name": "nonce",
          "type": "uint256"
        },
        {
          "internalType": "bytes",
          "name": "signature",
          "type": "bytes"
        }
      ],
      "name": "executeSponsoredTransfer",
      "outputs": [],
      "stateMutability": "nonpayable",
      "type": "function"
    },
    {
      "inputs": [
        {
          "internalType": "address",
          "name": "from",
          "type": "address"
        },
        {
          "internalType": "address",
          "name": "to",
          "type": "address"
        },
        {
          "internalType": "uint256",
          "name": "amount",
          "type": "uint256"
        },
        {
          "internalType": "address",
          "name": "token",
          "type": "address"
        },
        {
          "internalType": "uint256",
          "name": "chainId",
          "type": "uint256"
        },
        {
          "internalType": "uint256",
          "name": "nonce",
          "type": "uint256"
        },
        {
          "internalType": "bytes",
          "name": "signature",
          "type": "bytes"
        },
        {
          "internalType": "uint256",
          "name": "deadline",
          "type": "uint256"
        },
        {
          "internalType": "uint8",
          "name": "permitV",
          "type": "uint8"
        },
        {
          "internalType": "bytes32",
          "name": "permitR",
          "type": "bytes32"
        },
        {
          "internalType": "bytes32",
          "name": "permitS",
          "type": "bytes32"
        }
      ],
      "name": "executeSponsoredTransferWithPermit",
      "outputs": [],
      "stateMutability": "nonpayable",
      "type": "function"
    },
    {
      "inputs": [],
      "name": "getNativeDepositPool",
      "outputs": [
        {
          "internalType": "uint256",
          "name": "",
          "type": "uint256"
        }
      ],
      "stateMutability": "view",
      "type": "function"
    },
    {
      "inputs": [],
      "name": "nativeDepositPool",
      "outputs": [
        {
          "internalType": "uint256",
          "name": "",
          "type": "uint256"
        }
      ],
      "stateMutability": "view",
      "type": "function"
    },
    {
      "inputs": [
        {
          "internalType": "address",
          "name": "",
          "type": "address"
        }
      ],
      "name": "nonces",
      "outputs": [
        {
          "internalType": "uint256",
          "name": "",
          "type": "uint256"
        }
      ],
      "stateMutability": "view",
      "type": "function"
    },
    {
      "inputs": [
        {
          "internalType": "uint256",
          "name": "amount",
          "type": "uint256"
        }
      ],
      "name": "withdrawNative",
      "outputs": [],
      "stateMutability": "nonpayable",
      "type": "function"
    }
  ],
  "bytecode": "0x610160346200020d576001600160401b0390601f620017e238819003918201601f1916830192919084841183851017620001f75781602092849260409687528339810103126200020d57516001600160a01b03811691908290036200020d578051906200006c8262000212565b6019825260208201927f416457616c6c657453706f6e736f7265645472616e73666572000000000000008452815194620000a68662000212565b6001865260208601603160f81b8152620000c0856200022e565b95610120968752620000d28862000401565b95610140968752519020968760e052519020610100968188524660a05284519160208301917f8b73c3c69bb8fe3d512ecc4cf759cc79239f7b179b0ffacaa9a75d522b39400f83528684015260608301524660808301523060a083015260a0825260c082019282841090841117620001f757828552815190206080523060c0528215620001b357505060018060a01b0319600354161760035551916112339384620005af85396080518461110b015260a051846111d7015260c051846110d5015260e0518461115a015251836111800152518261052c015251816105560152f35b62461bcd60e51b8252602060c4820152601c60e48201527f41646d696e20616464726573732063616e6e6f74206265207a65726f0000000061010490910152606490fd5b634e487b7160e01b600052604160045260246000fd5b600080fd5b604081019081106001600160401b03821117620001f757604052565b80516020919082811015620002cd575090601f8251116200026c57808251920151908083106200025d57501790565b82600019910360031b1b161790565b90604051809263305a27a960e01b82528060048301528251908160248401526000935b828510620002b3575050604492506000838284010152601f80199101168101030190fd5b84810182015186860160440152938101938593506200028f565b6001600160401b038111620001f7576000928354926001938481811c91168015620003f6575b83821014620003e257601f8111620003ac575b5081601f8411600114620003455750928293918392869462000339575b50501b916000199060031b1c191617905560ff90565b01519250388062000323565b919083601f1981168780528488209488905b8883831062000391575050501062000377575b505050811b01905560ff90565b015160001960f88460031b161c191690553880806200036a565b85870151885590960195948501948793509081019062000357565b85805284601f848820920160051c820191601f860160051c015b828110620003d657505062000306565b878155018590620003c6565b634e487b7160e01b86526022600452602486fd5b90607f1690620002f3565b8051602090818110156200048f5750601f8251116200042e57808251920151908083106200025d57501790565b90604051809263305a27a960e01b82528060048301528251908160248401526000935b82851062000475575050604492506000838284010152601f80199101168101030190fd5b848101820151868601604401529381019385935062000451565b9192916001600160401b038111620001f75760019182548381811c91168015620005a3575b828210146200058d57601f811162000554575b5080601f831160011462000507575081929394600092620004fb575b5050600019600383901b1c191690821b17905560ff90565b015190503880620004e3565b90601f198316958460005282600020926000905b8882106200053c57505083859697106200037757505050811b01905560ff90565b8087859682949686015181550195019301906200051b565b8360005283601f83600020920160051c820191601f850160051c015b82811062000580575050620004c7565b6000815501849062000570565b634e487b7160e01b600052602260045260246000fd5b90607f1690620004b456fe608060408181526004918236101561001657600080fd5b600092833560e01c918263463a5ded146109f5575081635b97e3c4146107785781637ecebe001461074057816384276d811461063457816384b0196e14610514578163bd823c97146104f6578163d7ad6f3214610193578163db6b5246146100b3575063f851a4401461008857600080fd5b346100af57816003193601126100af5760035490516001600160a01b039091168152602090f35b5080fd5b90508260031936011261018f576003546001600160a01b03163303610154573415610112576100e3348254610d2e565b9055513481527fb5d7700fb0cf415158b8db7cc7c39f0eab16a825c92e221404b4c8bb099b4bbb60203392a280f35b6020606492519162461bcd60e51b8352820152601d60248201527f416d6f756e74206d7573742062652067726561746572207468616e20300000006044820152fd5b6020606492519162461bcd60e51b8352820152601660248201527513db9b1e4818591b5a5b8818d85b8819195c1bdcda5d60521b6044820152fd5b8280fd5b90503461018f5760e036600319011261018f576101ae610a10565b6101b6610a2b565b6101be610a41565b9360c4359067ffffffffffffffff82116104f25785916101e19036908701610a57565b6001600160a01b03808716808b526002602052848b20549098919791939192899289926102119060a43514610d51565b865180866044359a8c60a435918d60843592602087019561023196610d8d565b03601f19810182526102439082610af7565b80519060200120610253906110ac565b91369061025f92610ded565b61026891610f5b565b61027191611027565b161461027c90610e24565b8689526002602052828920805461029290610e64565b9055878616806103f857505080548381106103b55783471061037257836102b891610e73565b815587808080868989165af16102cc610e80565b501561032b57507f556d3e18aaafd7285db85803be3efcadf89efb4f0a06da33b9a08c811ccdde2c939291610325915b519081526001600160a01b03909616602087015260a43560408701529116939081906060820190565b0390a380f35b602060649261033b858454610d2e565b505162461bcd60e51b815291820152601660248201527513985d1a5d99481d1c985b9cd9995c8819985a5b195960521b6044820152fd5b506020606492519162461bcd60e51b8352820152601d60248201527f436f6e74726163742062616c616e636520696e73756666696369656e740000006044820152fd5b506020606492519162461bcd60e51b8352820152602060248201527f496e73756666696369656e74206e6174697665206465706f73697420706f6f6c6044820152fd5b9091839998979695949351636eb1769f60e11b81528782820152306024820152602081604481865afa9081156104e8579085918b916104af575b501061047357509761046e838561032595947f556d3e18aaafd7285db85803be3efcadf89efb4f0a06da33b9a08c811ccdde2c999a9b9c610eb0565b6102fc565b60649060208b519162461bcd60e51b83528201526016602482015275496e73756666696369656e7420616c6c6f77616e636560501b6044820152fd5b9150506020813d6020116104e0575b816104cb60209383610af7565b810103126104dc5784905138610432565b8980fd5b3d91506104be565b8b513d8c823e3d90fd5b8680fd5b90503461018f578260031936011261018f5760209250549051908152f35b9190503461018f578260031936011261018f576105507f0000000000000000000000000000000000000000000000000000000000000000610b19565b9261057a7f0000000000000000000000000000000000000000000000000000000000000000610c3f565b908251926020928385019585871067ffffffffffffffff88111761061f575092806105d58388966105c8998b9996528686528151998a99600f60f81b8b5260e0868c015260e08b0190610a85565b91898303908a0152610a85565b924660608801523060808801528460a088015286840360c088015251928381520193925b82811061060857505050500390f35b8351855286955093810193928101926001016105f9565b604190634e487b7160e01b6000525260246000fd5b9190503461018f57602036600319011261018f576003548235906001600160a01b031633036106fd5782548181106106c35784808361067582958395610e73565b8755335af1610682610e80565b501561068c578280f35b906020606492519162461bcd60e51b8352820152601160248201527015da5d1a191c985dd85b0819985a5b1959607a1b6044820152fd5b825162461bcd60e51b81526020818601526014602482015273496e73756666696369656e742062616c616e636560601b6044820152606490fd5b815162461bcd60e51b8152602081850152601760248201527f4f6e6c792061646d696e2063616e2077697468647261770000000000000000006044820152606490fd5b5050346100af5760203660031901126100af5760209181906001600160a01b03610768610a10565b1681526002845220549051908152f35b9190503461018f5761016036600319011261018f57610795610a10565b9161079e610a2b565b6107a6610a41565b9260c43567ffffffffffffffff81116104f2576107c69036908501610a57565b9093610104359160ff831683036109f1576001600160a01b03958787161561099c576108636108779261085d61086c936108558a8f8f8f908f908e6108226108499561083b948416815260026020528260a43591205414610d51565b5194859360a43592608435926044359160208801610d8d565b03601f198101835282610af7565b602081519101206110ac565b923691610ded565b90610f5b565b90929192611027565b861688871614610e24565b8487168852600260205282882061088e8154610e64565b90558486163b156109985760ff83519263d505accf60e01b845286891683850152306024850152604435604485015260e43560648501521660848301526101243560a48301526101443560c4830152878260e48183898b165af1801561098e5761095c575b505090610325837f556d3e18aaafd7285db85803be3efcadf89efb4f0a06da33b9a08c811ccdde2c949361092d604435858a858b16610eb0565b5160443581526001600160a01b03909616602087015260a4356040870152919092169416929081906060820190565b67ffffffffffffffff829893981161097b5750865294610325836108f3565b634e487b7160e01b835260419052602482fd5b83513d8a823e3d90fd5b8780fd5b845162461bcd60e51b8152602081850152602960248201527f4e617469766520746f6b656e20757365206578656375746553706f6e736f7265604482015268322a3930b739b332b960b91b6064820152608490fd5b8880fd5b84913461018f578260031936011261018f5760209250548152f35b600435906001600160a01b0382168203610a2657565b600080fd5b602435906001600160a01b0382168203610a2657565b606435906001600160a01b0382168203610a2657565b9181601f84011215610a265782359167ffffffffffffffff8311610a265760208381860195010111610a2657565b919082519283825260005b848110610ab1575050826000602080949584010152601f8019910116010190565b602081830181015184830182015201610a90565b6040810190811067ffffffffffffffff821117610ae157604052565b634e487b7160e01b600052604160045260246000fd5b90601f8019910116810190811067ffffffffffffffff821117610ae157604052565b60ff8114610b575760ff811690601f8211610b455760405191610b3b83610ac5565b8252602082015290565b604051632cd44ac360e21b8152600490fd5b506040516000805490600182811c90808416938415610c35575b6020948584108114610c215783875286949392918115610c015750600114610ba5575b5050610ba292500382610af7565b90565b60008080527f290decd9548b62a8d60345a988386fc84ba6bc95484008f6362f93160ef3e56395935091905b818310610be9575050610ba293508201013880610b94565b85548784018501529485019486945091830191610bd1565b915050610ba294925060ff191682840152151560051b8201013880610b94565b634e487b7160e01b85526022600452602485fd5b91607f1691610b71565b60ff8114610c615760ff811690601f8211610b455760405191610b3b83610ac5565b50604051600060019081549182811c90808416938415610d08575b6020948584108114610c215783875286949392918115610c015750600114610cac575050610ba292500382610af7565b60008181527fb10e2d527612073b26eecdfd717e6a320cf44b4afac2b0732d9fcbe2b7fa0cf695935091905b818310610cf0575050610ba293508201013880610b94565b85548784018501529485019486945091830191610cd8565b91607f1691610c7c565b67ffffffffffffffff8111610ae157601f01601f191660200190565b91908201809211610d3b57565b634e487b7160e01b600052601160045260246000fd5b15610d5857565b60405162461bcd60e51b815260206004820152600d60248201526c496e76616c6964206e6f6e636560981b6044820152606490fd5b7f9d77a72d248b83f2fae439b26af5306b3f0a82246b2eaed167df5f2e60c088fd81526001600160a01b039182166020820152918116604083015260608201929092529116608082015260a081019190915260c081019190915260e00190565b929192610df982610d12565b91610e076040519384610af7565b829481845281830111610a26578281602093846000960137010152565b15610e2b57565b60405162461bcd60e51b8152602060048201526011602482015270496e76616c6964207369676e617475726560781b6044820152606490fd5b6000198114610d3b5760010190565b91908203918211610d3b57565b3d15610eab573d90610e9182610d12565b91610e9f6040519384610af7565b82523d6000602084013e565b606090565b6040516323b872dd60e01b602082019081526001600160a01b039384166024830152938316604482015260648082019590955293845292909160a082019067ffffffffffffffff821183831017610ae157602092600092604052519082865af115610f4f576000513d610f4657508082163b155b610f2c575050565b604051635274afe760e01b81529116600482015260249150fd5b60011415610f24565b6040513d6000823e3d90fd5b8151919060418303610f8c57610f8592506020820151906060604084015193015160001a90610f97565b9192909190565b505060009160029190565b91907f7fffffffffffffffffffffffffffffff5d576e7357a4501ddfe92f46681b20a0841161101b57926020929160ff608095604051948552168484015260408301526060820152600092839182805260015afa1561100f5780516001600160a01b0381161561100657918190565b50809160019190565b604051903d90823e3d90fd5b50505060009160039190565b60048110156110965780611039575050565b600181036110535760405163f645eedf60e01b8152600490fd5b600281036110745760405163fce698f760e01b815260048101839052602490fd5b60031461107e5750565b602490604051906335e2f38360e21b82526004820152fd5b634e487b7160e01b600052602160045260246000fd5b6042906110b76110d2565b906040519161190160f01b8352600283015260228201522090565b307f00000000000000000000000000000000000000000000000000000000000000006001600160a01b031614806111d4575b1561112d577f000000000000000000000000000000000000000000000000000000000000000090565b60405160208101907f8b73c3c69bb8fe3d512ecc4cf759cc79239f7b179b0ffacaa9a75d522b39400f82527f000000000000000000000000000000000000000000000000000000000000000060408201527f000000000000000000000000000000000000000000000000000000000000000060608201524660808201523060a082015260a0815260c0810181811067ffffffffffffffff821117610ae15760405251902090565b507f0000000000000000000000000000000000000000000000000000000000000000461461110456fea2646970667358221220f0a432f7eb7f3ab157af772771b7924eb3163a1900bbbe3b06db16cd2d8b006664736f6c63430008140033",
  "linkReferences": {},
  "deployedLinkReferences": {}
}