{
  "_format": "hh-sol-artifact-1",
  "contractName": "AdWalletSponsoredTransfer",
  "sourceName": "contracts/AdWalletSponsoredTransfer.sol",
  "abi": [
    {
      "inputs": [
        {
          "internalType": "address",
          "name": "_admin",
          "type": "address"
        }
      ],
      "stateMutability": "nonpayable",
      "type": "constructor"
    },
    {
      "inputs": [],
      "name": "ECDSAInvalidSignature",
      "type": "error"
    },
    {
      "inputs": [
        {
          "internalType": "uint256",
          "name": "length",
          "type": "uint256"
        }
      ],
      "name": "ECDSAInvalidSignatureLength",
      "type": "error"
    },
    {
      "inputs": [
        {
          "internalType": "bytes32",
          "name": "s",
          "type": "bytes32"
        }
      ],
      "name": "ECDSAInvalidSignatureS",
      "type": "error"
    },
    {
      "inputs": [],
      "name": "InvalidShortString",
      "type": "error"
    },
    {
      "inputs": [
        {
          "internalType": "address",
          "name": "token",
          "type": "address"
        }
      ],
      "name": "SafeERC20FailedOperation",
      "type": "error"
    },
    {
      "inputs": [
        {
          "internalType": "string",
          "name": "str",
          "type": "string"
        }
      ],
      "name": "StringTooLong",
      "type": "error"
    },
    {
      "anonymous": false,
      "inputs": [],
      "name": "EIP712DomainChanged",
      "type": "event"
    },
    {
      "anonymous": false,
      "inputs": [
        {
          "indexed": true,
          "internalType": "address",
          "name": "admin",
          "type": "address"
        },
        {
          "indexed": false,
          "internalType": "uint256",
          "name": "amount",
          "type": "uint256"
        }
      ],
      "name": "NativeDeposited",
      "type": "event"
    },
    {
      "anonymous": false,
      "inputs": [
        {
          "indexed": true,
          "internalType": "address",
          "name": "from",
          "type": "address"
        },
        {
          "indexed": true,
          "internalType": "address",
          "name": "to",
          "type": "address"
        },
        {
          "indexed": false,
          "internalType": "uint256",
          "name": "amount",
          "type": "uint256"
        },
        {
          "indexed": false,
          "internalType": "address",
          "name": "token",
          "type": "address"
        },
        {
          "indexed": false,
          "internalType": "uint256",
          "name": "nonce",
          "type": "uint256"
        }
      ],
      "name": "SponsoredTransfer",
      "type": "event"
    },
    {
      "inputs": [],
      "name": "admin",
      "outputs": [
        {
          "internalType": "address",
          "name": "",
          "type": "address"
        }
      ],
      "stateMutability": "view",
      "type": "function"
    },
    {
      "inputs": [],
      "name": "depositNative",
      "outputs": [],
      "stateMutability": "payable",
      "type": "function"
    },
    {
      "inputs": [],
      "name": "eip712Domain",
      "outputs": [
        {
          "internalType": "bytes1",
          "name": "fields",
          "type": "bytes1"
        },
        {
          "internalType": "string",
          "name": "name",
          "type": "string"
        },
        {
          "internalType": "string",
          "name": "version",
          "type": "string"
        },
        {
          "internalType": "uint256",
          "name": "chainId",
          "type": "uint256"
        },
        {
          "internalType": "address",
          "name": "verifyingContract",
          "type": "address"
        },
        {
          "internalType": "bytes32",
          "name": "salt",
          "type": "bytes32"
        },
        {
          "internalType": "uint256[]",
          "name": "extensions",
          "type": "uint256[]"
        }
      ],
      "stateMutability": "view",
      "type": "function"
    },
    {
      "inputs": [
        {
          "internalType": "address",
          "name": "from",
          "type": "address"
        },
        {
          "internalType": "address",
          "name": "to",
          "type": "address"
        },
        {
          "internalType": "uint256",
          "name": "amount",
          "type": "uint256"
        },
        {
          "internalType": "address",
          "name": "token",
          "type": "address"
        },
        {
          "internalType": "uint256",
          "name": "chainId",
          "type": "uint256"
        },
        {
          "internalType": "uint256",
          "name": "nonce",
          "type": "uint256"
        },
        {
          "internalType": "bytes",
          "name": "signature",
          "type": "bytes"
        }
      ],
      "name": "executeSponsoredTransfer",
      "outputs": [],
      "stateMutability": "nonpayable",
      "type": "function"
    },
    {
      "inputs": [],
      "name": "getNativeDepositPool",
      "outputs": [
        {
          "internalType": "uint256",
          "name": "",
          "type": "uint256"
        }
      ],
      "stateMutability": "view",
      "type": "function"
    },
    {
      "inputs": [],
      "name": "nativeDepositPool",
      "outputs": [
        {
          "internalType": "uint256",
          "name": "",
          "type": "uint256"
        }
      ],
      "stateMutability": "view",
      "type": "function"
    },
    {
      "inputs": [
        {
          "internalType": "address",
          "name": "",
          "type": "address"
        }
      ],
      "name": "nonces",
      "outputs": [
        {
          "internalType": "uint256",
          "name": "",
          "type": "uint256"
        }
      ],
      "stateMutability": "view",
      "type": "function"
    },
    {
      "inputs": [
        {
          "internalType": "uint256",
          "name": "amount",
          "type": "uint256"
        }
      ],
      "name": "withdrawNative",
      "outputs": [],
      "stateMutability": "nonpayable",
      "type": "function"
    }
  ],
  "bytecode": "0x6101606040523480156200001257600080fd5b506040516200159c3803806200159c833981016040819052620000359162000235565b604080518082018252601981527f416457616c6c657453706f6e736f7265645472616e7366657200000000000000602080830191909152825180840190935260018352603160f81b90830152906200008f826000620001b9565b61012052620000a0816001620001b9565b61014052815160208084019190912060e052815190820120610100524660a0526200012e60e05161010051604080517f8b73c3c69bb8fe3d512ecc4cf759cc79239f7b179b0ffacaa9a75d522b39400f60208201529081019290925260608201524660808201523060a082015260009060c00160405160208183030381529060405280519060200120905090565b60805250503060c0526001600160a01b038116620001935760405162461bcd60e51b815260206004820152601c60248201527f41646d696e20616464726573732063616e6e6f74206265207a65726f0000000060448201526064015b60405180910390fd5b600380546001600160a01b0319166001600160a01b03929092169190911790556200044d565b6000602083511015620001d957620001d183620001f2565b9050620001ec565b81620001e684826200030c565b5060ff90505b92915050565b600080829050601f8151111562000220578260405163305a27a960e01b81526004016200018a9190620003d8565b80516200022d8262000428565b179392505050565b6000602082840312156200024857600080fd5b81516001600160a01b03811681146200026057600080fd5b9392505050565b634e487b7160e01b600052604160045260246000fd5b600181811c908216806200029257607f821691505b602082108103620002b357634e487b7160e01b600052602260045260246000fd5b50919050565b601f8211156200030757600081815260208120601f850160051c81016020861015620002e25750805b601f850160051c820191505b818110156200030357828155600101620002ee565b5050505b505050565b81516001600160401b0381111562000328576200032862000267565b62000340816200033984546200027d565b84620002b9565b602080601f8311600181146200037857600084156200035f5750858301515b600019600386901b1c1916600185901b17855562000303565b600085815260208120601f198616915b82811015620003a95788860151825594840194600190910190840162000388565b5085821015620003c85787850151600019600388901b60f8161c191681555b5050505050600190811b01905550565b600060208083528351808285015260005b818110156200040757858101830151858201604001528201620003e9565b506000604082860101526040601f19601f8301168501019250505092915050565b80516020808301519190811015620002b35760001960209190910360031b1b16919050565b60805160a05160c05160e0516101005161012051610140516110f4620004a860003960006108a60152600061087401526000610b0e01526000610ae601526000610a4101526000610a6b01526000610a9501526110f46000f3fe60806040526004361061007b5760003560e01c8063bd823c971161004e578063bd823c9714610120578063d7ad6f3214610135578063db6b524614610155578063f851a4401461015d57600080fd5b8063463a5ded146100805780637ecebe00146100a957806384276d81146100d657806384b0196e146100f8575b600080fd5b34801561008c57600080fd5b5061009660045481565b6040519081526020015b60405180910390f35b3480156100b557600080fd5b506100966100c4366004610e28565b60026020526000908152604090205481565b3480156100e257600080fd5b506100f66100f1366004610e4a565b610195565b005b34801561010457600080fd5b5061010d6102e4565b6040516100a09796959493929190610ea9565b34801561012c57600080fd5b50600454610096565b34801561014157600080fd5b506100f6610150366004610f3f565b61032a565b6100f661077c565b34801561016957600080fd5b5060035461017d906001600160a01b031681565b6040516001600160a01b0390911681526020016100a0565b6003546001600160a01b031633146101f45760405162461bcd60e51b815260206004820152601760248201527f4f6e6c792061646d696e2063616e20776974686472617700000000000000000060448201526064015b60405180910390fd5b80600454101561023d5760405162461bcd60e51b8152602060048201526014602482015273496e73756666696369656e742062616c616e636560601b60448201526064016101eb565b806004600082825461024f9190611016565b9091555050604051600090339083908381818185875af1925050503d8060008114610296576040519150601f19603f3d011682016040523d82523d6000602084013e61029b565b606091505b50509050806102e05760405162461bcd60e51b815260206004820152601160248201527015da5d1a191c985dd85b0819985a5b1959607a1b60448201526064016101eb565b5050565b6000606080600080600060606102f861086d565b61030061089f565b60408051600080825260208201909252600f60f81b9b939a50919850469750309650945092509050565b6001600160a01b03881660009081526002602052604090205483146103815760405162461bcd60e51b815260206004820152600d60248201526c496e76616c6964206e6f6e636560981b60448201526064016101eb565b604080517f9d77a72d248b83f2fae439b26af5306b3f0a82246b2eaed167df5f2e60c088fd6020808301919091526001600160a01b038b8116838501528a81166060840152608083018a9052881660a083015260c0820187905260e08083018790528351808403909101815261010090920190925280519101206000610406826108cc565b9050600061044a8286868080601f0160208091040260200160405190810160405280939291908181526020018383808284376000920191909152506108ff92505050565b90508a6001600160a01b0316816001600160a01b0316146104a15760405162461bcd60e51b8152602060048201526011602482015270496e76616c6964207369676e617475726560781b60448201526064016101eb565b6001600160a01b038b1660009081526002602052604081208054916104c583611029565b90915550506001600160a01b0388166106485788600454101561052a5760405162461bcd60e51b815260206004820181905260248201527f496e73756666696369656e74206e6174697665206465706f73697420706f6f6c60448201526064016101eb565b8847101561057a5760405162461bcd60e51b815260206004820152601d60248201527f436f6e74726163742062616c616e636520696e73756666696369656e7400000060448201526064016101eb565b886004600082825461058c9190611016565b90915550506040516000906001600160a01b038c16908b908381818185875af1925050503d80600081146105dc576040519150601f19603f3d011682016040523d82523d6000602084013e6105e1565b606091505b50509050806106425789600460008282546105fc9190611042565b909155505060405162461bcd60e51b815260206004820152601660248201527513985d1a5d99481d1c985b9cd9995c8819985a5b195960521b60448201526064016101eb565b5061071e565b604051636eb1769f60e11b81526001600160a01b038c81166004830152306024830152600091908a169063dd62ed3e90604401602060405180830381865afa158015610698573d6000803e3d6000fd5b505050506040513d601f19601f820116820180604052508101906106bc9190611055565b9050898110156107075760405162461bcd60e51b8152602060048201526016602482015275496e73756666696369656e7420616c6c6f77616e636560501b60448201526064016101eb565b61071c6001600160a01b038a168d8d8d610929565b505b604080518a81526001600160a01b038a81166020830152918101889052818c16918d16907f556d3e18aaafd7285db85803be3efcadf89efb4f0a06da33b9a08c811ccdde2c9060600160405180910390a35050505050505050505050565b6003546001600160a01b031633146107cf5760405162461bcd60e51b815260206004820152601660248201527513db9b1e4818591b5a5b8818d85b8819195c1bdcda5d60521b60448201526064016101eb565b6000341161081f5760405162461bcd60e51b815260206004820152601d60248201527f416d6f756e74206d7573742062652067726561746572207468616e203000000060448201526064016101eb565b34600460008282546108319190611042565b909155505060405134815233907fb5d7700fb0cf415158b8db7cc7c39f0eab16a825c92e221404b4c8bb099b4bbb9060200160405180910390a2565b606061089a7f00000000000000000000000000000000000000000000000000000000000000006000610989565b905090565b606061089a7f00000000000000000000000000000000000000000000000000000000000000006001610989565b60006108f96108d9610a34565b8360405161190160f01b8152600281019290925260228201526042902090565b92915050565b60008060008061090f8686610b5f565b92509250925061091f8282610bac565b5090949350505050565b604080516001600160a01b0385811660248301528416604482015260648082018490528251808303909101815260849091019091526020810180516001600160e01b03166323b872dd60e01b179052610983908590610c65565b50505050565b606060ff83146109a35761099c83610cd6565b90506108f9565b8180546109af9061106e565b80601f01602080910402602001604051908101604052809291908181526020018280546109db9061106e565b8015610a285780601f106109fd57610100808354040283529160200191610a28565b820191906000526020600020905b815481529060010190602001808311610a0b57829003601f168201915b505050505090506108f9565b6000306001600160a01b037f000000000000000000000000000000000000000000000000000000000000000016148015610a8d57507f000000000000000000000000000000000000000000000000000000000000000046145b15610ab757507f000000000000000000000000000000000000000000000000000000000000000090565b61089a604080517f8b73c3c69bb8fe3d512ecc4cf759cc79239f7b179b0ffacaa9a75d522b39400f60208201527f0000000000000000000000000000000000000000000000000000000000000000918101919091527f000000000000000000000000000000000000000000000000000000000000000060608201524660808201523060a082015260009060c00160405160208183030381529060405280519060200120905090565b60008060008351604103610b995760208401516040850151606086015160001a610b8b88828585610d15565b955095509550505050610ba5565b50508151600091506002905b9250925092565b6000826003811115610bc057610bc06110a8565b03610bc9575050565b6001826003811115610bdd57610bdd6110a8565b03610bfb5760405163f645eedf60e01b815260040160405180910390fd5b6002826003811115610c0f57610c0f6110a8565b03610c305760405163fce698f760e01b8152600481018290526024016101eb565b6003826003811115610c4457610c446110a8565b036102e0576040516335e2f38360e21b8152600481018290526024016101eb565b600080602060008451602086016000885af180610c88576040513d6000823e3d81fd5b50506000513d91508115610ca0578060011415610cad565b6001600160a01b0384163b155b1561098357604051635274afe760e01b81526001600160a01b03851660048201526024016101eb565b60606000610ce383610de4565b604080516020808252818301909252919250600091906020820181803683375050509182525060208101929092525090565b600080807f7fffffffffffffffffffffffffffffff5d576e7357a4501ddfe92f46681b20a0841115610d505750600091506003905082610dda565b604080516000808252602082018084528a905260ff891692820192909252606081018790526080810186905260019060a0016020604051602081039080840390855afa158015610da4573d6000803e3d6000fd5b5050604051601f1901519150506001600160a01b038116610dd057506000925060019150829050610dda565b9250600091508190505b9450945094915050565b600060ff8216601f8111156108f957604051632cd44ac360e21b815260040160405180910390fd5b80356001600160a01b0381168114610e2357600080fd5b919050565b600060208284031215610e3a57600080fd5b610e4382610e0c565b9392505050565b600060208284031215610e5c57600080fd5b5035919050565b6000815180845260005b81811015610e8957602081850181015186830182015201610e6d565b506000602082860101526020601f19601f83011685010191505092915050565b60ff60f81b881681526000602060e081840152610ec960e084018a610e63565b8381036040850152610edb818a610e63565b606085018990526001600160a01b038816608086015260a0850187905284810360c0860152855180825283870192509083019060005b81811015610f2d57835183529284019291840191600101610f11565b50909c9b505050505050505050505050565b60008060008060008060008060e0898b031215610f5b57600080fd5b610f6489610e0c565b9750610f7260208a01610e0c565b965060408901359550610f8760608a01610e0c565b94506080890135935060a0890135925060c089013567ffffffffffffffff80821115610fb257600080fd5b818b0191508b601f830112610fc657600080fd5b813581811115610fd557600080fd5b8c6020828501011115610fe757600080fd5b6020830194508093505050509295985092959890939650565b634e487b7160e01b600052601160045260246000fd5b818103818111156108f9576108f9611000565b60006001820161103b5761103b611000565b5060010190565b808201808211156108f9576108f9611000565b60006020828403121561106757600080fd5b5051919050565b600181811c9082168061108257607f821691505b6020821081036110a257634e487b7160e01b600052602260045260246000fd5b50919050565b634e487b7160e01b600052602160045260246000fdfea2646970667358221220feb56e960d0918e919b65bfec502c398e0fc843f0e5625e4654e9148fa63b94964736f6c63430008140033",
  "linkReferences": {},
  "deployedLinkReferences": {}
}